{
  "_format": "hh-sol-artifact-1",
  "contractName": "TokenPreSaleBooking",
  "sourceName": "contracts/TokenPreSaleBooking.sol",
  "abi": [
    {
      "inputs": [],
      "stateMutability": "nonpayable",
      "type": "constructor"
    },
    {
      "anonymous": false,
      "inputs": [
        {
          "indexed": false,
          "internalType": "uint8",
          "name": "version",
          "type": "uint8"
        }
      ],
      "name": "Initialized",
      "type": "event"
    },
    {
      "anonymous": false,
      "inputs": [
        {
          "indexed": true,
          "internalType": "address",
          "name": "previousOwner",
          "type": "address"
        },
        {
          "indexed": true,
          "internalType": "address",
          "name": "newOwner",
          "type": "address"
        }
      ],
      "name": "OwnershipTransferred",
      "type": "event"
    },
    {
      "anonymous": false,
      "inputs": [
        {
          "indexed": true,
          "internalType": "uint256",
          "name": "id",
          "type": "uint256"
        },
        {
          "indexed": false,
          "internalType": "uint256",
          "name": "timestamp",
          "type": "uint256"
        }
      ],
      "name": "PresalePaused",
      "type": "event"
    },
    {
      "anonymous": false,
      "inputs": [
        {
          "indexed": true,
          "internalType": "uint256",
          "name": "id",
          "type": "uint256"
        },
        {
          "indexed": false,
          "internalType": "uint256",
          "name": "timestamp",
          "type": "uint256"
        }
      ],
      "name": "PresaleUnpaused",
      "type": "event"
    },
    {
      "anonymous": false,
      "inputs": [
        {
          "indexed": true,
          "internalType": "address",
          "name": "user",
          "type": "address"
        },
        {
          "indexed": true,
          "internalType": "uint256",
          "name": "id",
          "type": "uint256"
        },
        {
          "indexed": true,
          "internalType": "address",
          "name": "purchaseToken",
          "type": "address"
        },
        {
          "indexed": false,
          "internalType": "uint256",
          "name": "amountBooked",
          "type": "uint256"
        },
        {
          "indexed": false,
          "internalType": "uint256",
          "name": "timestamp",
          "type": "uint256"
        }
      ],
      "name": "TokensPreBooked",
      "type": "event"
    },
    {
      "anonymous": false,
      "inputs": [
        {
          "indexed": true,
          "internalType": "address",
          "name": "user",
          "type": "address"
        },
        {
          "indexed": true,
          "internalType": "uint256",
          "name": "id",
          "type": "uint256"
        },
        {
          "indexed": false,
          "internalType": "uint256",
          "name": "amount",
          "type": "uint256"
        },
        {
          "indexed": false,
          "internalType": "uint256",
          "name": "timestamp",
          "type": "uint256"
        }
      ],
      "name": "TokensPreBookedRefunded",
      "type": "event"
    },
    {
      "inputs": [],
      "name": "USDTInterface",
      "outputs": [
        {
          "internalType": "contract IERC20Upgradeable",
          "name": "",
          "type": "address"
        }
      ],
      "stateMutability": "view",
      "type": "function"
    },
    {
      "inputs": [
        {
          "internalType": "uint256",
          "name": "",
          "type": "uint256"
        }
      ],
      "name": "booked_users",
      "outputs": [
        {
          "internalType": "uint256",
          "name": "bookingId",
          "type": "uint256"
        },
        {
          "internalType": "address",
          "name": "user",
          "type": "address"
        },
        {
          "internalType": "address",
          "name": "booking_market",
          "type": "address"
        },
        {
          "internalType": "uint256",
          "name": "booking_amount",
          "type": "uint256"
        },
        {
          "internalType": "string",
          "name": "discord_handle",
          "type": "string"
        },
        {
          "internalType": "string",
          "name": "twitter_handle",
          "type": "string"
        },
        {
          "internalType": "uint256",
          "name": "commitment_interest",
          "type": "uint256"
        },
        {
          "internalType": "bool",
          "name": "has_investor",
          "type": "bool"
        },
        {
          "components": [
            {
              "internalType": "string",
              "name": "fund_name",
              "type": "string"
            },
            {
              "internalType": "uint256",
              "name": "commitment_interest",
              "type": "uint256"
            },
            {
              "internalType": "uint256",
              "name": "time_to_decision",
              "type": "uint256"
            },
            {
              "internalType": "string",
              "name": "website_url",
              "type": "string"
            }
          ],
          "internalType": "struct TokenPreSaleBooking.InvestorDetails",
          "name": "investor_details",
          "type": "tuple"
        },
        {
          "internalType": "bool",
          "name": "havePreBooked",
          "type": "bool"
        },
        {
          "internalType": "uint256",
          "name": "bookingTime",
          "type": "uint256"
        },
        {
          "internalType": "bool",
          "name": "isAllowed",
          "type": "bool"
        }
      ],
      "stateMutability": "view",
      "type": "function"
    },
    {
      "inputs": [],
      "name": "bookingId",
      "outputs": [
        {
          "internalType": "uint256",
          "name": "",
          "type": "uint256"
        }
      ],
      "stateMutability": "view",
      "type": "function"
    },
    {
      "inputs": [],
      "name": "bookingRefund",
      "outputs": [
        {
          "internalType": "bool",
          "name": "",
          "type": "bool"
        }
      ],
      "stateMutability": "nonpayable",
      "type": "function"
    },
    {
      "inputs": [],
      "name": "getPreBookedUsers",
      "outputs": [
        {
          "components": [
            {
              "internalType": "uint256",
              "name": "bookingId",
              "type": "uint256"
            },
            {
              "internalType": "address",
              "name": "user",
              "type": "address"
            },
            {
              "internalType": "address",
              "name": "booking_market",
              "type": "address"
            },
            {
              "internalType": "uint256",
              "name": "booking_amount",
              "type": "uint256"
            },
            {
              "internalType": "string",
              "name": "discord_handle",
              "type": "string"
            },
            {
              "internalType": "string",
              "name": "twitter_handle",
              "type": "string"
            },
            {
              "internalType": "uint256",
              "name": "commitment_interest",
              "type": "uint256"
            },
            {
              "internalType": "bool",
              "name": "has_investor",
              "type": "bool"
            },
            {
              "components": [
                {
                  "internalType": "string",
                  "name": "fund_name",
                  "type": "string"
                },
                {
                  "internalType": "uint256",
                  "name": "commitment_interest",
                  "type": "uint256"
                },
                {
                  "internalType": "uint256",
                  "name": "time_to_decision",
                  "type": "uint256"
                },
                {
                  "internalType": "string",
                  "name": "website_url",
                  "type": "string"
                }
              ],
              "internalType": "struct TokenPreSaleBooking.InvestorDetails",
              "name": "investor_details",
              "type": "tuple"
            },
            {
              "internalType": "bool",
              "name": "havePreBooked",
              "type": "bool"
            },
            {
              "internalType": "uint256",
              "name": "bookingTime",
              "type": "uint256"
            },
            {
              "internalType": "bool",
              "name": "isAllowed",
              "type": "bool"
            }
          ],
          "internalType": "struct TokenPreSaleBooking.UserPreBookDetails[]",
          "name": "",
          "type": "tuple[]"
        }
      ],
      "stateMutability": "view",
      "type": "function"
    },
    {
      "inputs": [],
      "name": "getUserBookingDetails",
      "outputs": [
        {
          "components": [
            {
              "internalType": "uint256",
              "name": "bookingId",
              "type": "uint256"
            },
            {
              "internalType": "address",
              "name": "user",
              "type": "address"
            },
            {
              "internalType": "address",
              "name": "booking_market",
              "type": "address"
            },
            {
              "internalType": "uint256",
              "name": "booking_amount",
              "type": "uint256"
            },
            {
              "internalType": "string",
              "name": "discord_handle",
              "type": "string"
            },
            {
              "internalType": "string",
              "name": "twitter_handle",
              "type": "string"
            },
            {
              "internalType": "uint256",
              "name": "commitment_interest",
              "type": "uint256"
            },
            {
              "internalType": "bool",
              "name": "has_investor",
              "type": "bool"
            },
            {
              "components": [
                {
                  "internalType": "string",
                  "name": "fund_name",
                  "type": "string"
                },
                {
                  "internalType": "uint256",
                  "name": "commitment_interest",
                  "type": "uint256"
                },
                {
                  "internalType": "uint256",
                  "name": "time_to_decision",
                  "type": "uint256"
                },
                {
                  "internalType": "string",
                  "name": "website_url",
                  "type": "string"
                }
              ],
              "internalType": "struct TokenPreSaleBooking.InvestorDetails",
              "name": "investor_details",
              "type": "tuple"
            },
            {
              "internalType": "bool",
              "name": "havePreBooked",
              "type": "bool"
            },
            {
              "internalType": "uint256",
              "name": "bookingTime",
              "type": "uint256"
            },
            {
              "internalType": "bool",
              "name": "isAllowed",
              "type": "bool"
            }
          ],
          "internalType": "struct TokenPreSaleBooking.UserPreBookDetails",
          "name": "",
          "type": "tuple"
        }
      ],
      "stateMutability": "view",
      "type": "function"
    },
    {
      "inputs": [],
      "name": "hasUserPreBooked",
      "outputs": [
        {
          "internalType": "bool",
          "name": "",
          "type": "bool"
        }
      ],
      "stateMutability": "view",
      "type": "function"
    },
    {
      "inputs": [
        {
          "internalType": "address",
          "name": "_usdt",
          "type": "address"
        },
        {
          "internalType": "uint256",
          "name": "_startTime",
          "type": "uint256"
        },
        {
          "internalType": "uint256",
          "name": "_endTime",
          "type": "uint256"
        },
        {
          "internalType": "uint256",
          "name": "_min_purchases_in_usd",
          "type": "uint256"
        }
      ],
      "name": "initialize",
      "outputs": [],
      "stateMutability": "nonpayable",
      "type": "function"
    },
    {
      "inputs": [],
      "name": "owner",
      "outputs": [
        {
          "internalType": "address",
          "name": "",
          "type": "address"
        }
      ],
      "stateMutability": "view",
      "type": "function"
    },
    {
      "inputs": [
        {
          "internalType": "uint256",
          "name": "_id",
          "type": "uint256"
        }
      ],
      "name": "pausePresale",
      "outputs": [],
      "stateMutability": "nonpayable",
      "type": "function"
    },
    {
      "inputs": [
        {
          "internalType": "uint256",
          "name": "amount",
          "type": "uint256"
        },
        {
          "internalType": "address",
          "name": "market",
          "type": "address"
        },
        {
          "internalType": "string",
          "name": "discord_handle",
          "type": "string"
        },
        {
          "internalType": "string",
          "name": "twitter_handle",
          "type": "string"
        },
        {
          "internalType": "uint256",
          "name": "commitment_interest",
          "type": "uint256"
        },
        {
          "internalType": "bool",
          "name": "has_investor",
          "type": "bool"
        },
        {
          "components": [
            {
              "internalType": "string",
              "name": "fund_name",
              "type": "string"
            },
            {
              "internalType": "uint256",
              "name": "commitment_interest",
              "type": "uint256"
            },
            {
              "internalType": "uint256",
              "name": "time_to_decision",
              "type": "uint256"
            },
            {
              "internalType": "string",
              "name": "website_url",
              "type": "string"
            }
          ],
          "internalType": "struct TokenPreSaleBooking.InvestorDetails",
          "name": "investorDetails",
          "type": "tuple"
        }
      ],
      "name": "preBokking",
      "outputs": [
        {
          "internalType": "bool",
          "name": "",
          "type": "bool"
        }
      ],
      "stateMutability": "nonpayable",
      "type": "function"
    },
    {
      "inputs": [
        {
          "internalType": "uint256",
          "name": "",
          "type": "uint256"
        }
      ],
      "name": "presale",
      "outputs": [
        {
          "internalType": "uint256",
          "name": "startTime",
          "type": "uint256"
        },
        {
          "internalType": "uint256",
          "name": "endTime",
          "type": "uint256"
        },
        {
          "internalType": "uint256",
          "name": "min_purchases_in_usd",
          "type": "uint256"
        }
      ],
      "stateMutability": "view",
      "type": "function"
    },
    {
      "inputs": [],
      "name": "presaleId",
      "outputs": [
        {
          "internalType": "uint256",
          "name": "",
          "type": "uint256"
        }
      ],
      "stateMutability": "view",
      "type": "function"
    },
    {
      "inputs": [],
      "name": "renounceOwnership",
      "outputs": [],
      "stateMutability": "nonpayable",
      "type": "function"
    },
    {
      "inputs": [
        {
          "internalType": "address",
          "name": "newOwner",
          "type": "address"
        }
      ],
      "name": "transferOwnership",
      "outputs": [],
      "stateMutability": "nonpayable",
      "type": "function"
    },
    {
      "inputs": [
        {
          "internalType": "uint256",
          "name": "_id",
          "type": "uint256"
        }
      ],
      "name": "unPausePresale",
      "outputs": [],
      "stateMutability": "nonpayable",
      "type": "function"
    },
    {
      "inputs": [
        {
          "internalType": "address",
          "name": "",
          "type": "address"
        }
      ],
      "name": "userPreBookDetails",
      "outputs": [
        {
          "internalType": "uint256",
          "name": "bookingId",
          "type": "uint256"
        },
        {
          "internalType": "address",
          "name": "user",
          "type": "address"
        },
        {
          "internalType": "address",
          "name": "booking_market",
          "type": "address"
        },
        {
          "internalType": "uint256",
          "name": "booking_amount",
          "type": "uint256"
        },
        {
          "internalType": "string",
          "name": "discord_handle",
          "type": "string"
        },
        {
          "internalType": "string",
          "name": "twitter_handle",
          "type": "string"
        },
        {
          "internalType": "uint256",
          "name": "commitment_interest",
          "type": "uint256"
        },
        {
          "internalType": "bool",
          "name": "has_investor",
          "type": "bool"
        },
        {
          "components": [
            {
              "internalType": "string",
              "name": "fund_name",
              "type": "string"
            },
            {
              "internalType": "uint256",
              "name": "commitment_interest",
              "type": "uint256"
            },
            {
              "internalType": "uint256",
              "name": "time_to_decision",
              "type": "uint256"
            },
            {
              "internalType": "string",
              "name": "website_url",
              "type": "string"
            }
          ],
          "internalType": "struct TokenPreSaleBooking.InvestorDetails",
          "name": "investor_details",
          "type": "tuple"
        },
        {
          "internalType": "bool",
          "name": "havePreBooked",
          "type": "bool"
        },
        {
          "internalType": "uint256",
          "name": "bookingTime",
          "type": "uint256"
        },
        {
          "internalType": "bool",
          "name": "isAllowed",
          "type": "bool"
        }
      ],
      "stateMutability": "view",
      "type": "function"
    }
  ],
  "bytecode": "0x608060405234801561001057600080fd5b50614c9b806100206000396000f3fe608060405234801561001057600080fd5b506004361061010b5760003560e01c8063903d6c65116100a2578063e18e84f911610071578063e18e84f9146102aa578063e6ab1434146102c8578063e762a15b146102fa578063f2fde38b14610318578063f597573f146103345761010b565b8063903d6c6514610217578063b11f449814610252578063c5e0830c14610270578063d01608c11461028e5761010b565b806362e9fc66116100de57806362e9fc6614610196578063715018a6146101b4578063766c5102146101be5780638da5cb5b146101f95761010b565b80630a10df7c14610110578063386c44f31461012e5780634a6413f71461015e5780634ec81af11461017a575b600080fd5b610118610352565b6040516101259190612fd4565b60405180910390f35b61014860048036038101906101439190613325565b610358565b6040516101559190613432565b60405180910390f35b6101786004803603810190610173919061344d565b611331565b005b610194600480360381019061018f919061347a565b6113df565b005b61019e611642565b6040516101ab9190613432565b60405180910390f35b6101bc611c28565b005b6101d860048036038101906101d3919061344d565b611c3c565b6040516101f09c9b9a99989796959493929190613632565b60405180910390f35b610201611f55565b60405161020e9190613701565b60405180910390f35b610231600480360381019061022c919061371c565b611f7f565b6040516102499c9b9a99989796959493929190613632565b60405180910390f35b61025a612298565b6040516102679190613432565b60405180910390f35b6102786122f6565b60405161028591906138e3565b60405180910390f35b6102a860048036038101906102a3919061344d565b6126ea565b005b6102b2612797565b6040516102bf9190612fd4565b60405180910390f35b6102e260048036038101906102dd919061344d565b61279d565b6040516102f193929190613905565b60405180910390f35b6103026127c7565b60405161030f9190613b10565b60405180910390f35b610332600480360381019061032d919061371c565b612c29565b005b61033c612cac565b6040516103499190613b91565b60405180910390f35b60985481565b6000609960149054906101000a900460ff16156103aa576040517f08c379a00000000000000000000000000000000000000000000000000000000081526004016103a190613bf8565b60405180910390fd5b609b60006103b6612cd2565b73ffffffffffffffffffffffffffffffffffffffff1673ffffffffffffffffffffffffffffffffffffffff168152602001908152602001600020600c0160009054906101000a900460ff1615610441576040517f08c379a000000000000000000000000000000000000000000000000000000000815260040161043890613c64565b60405180910390fd5b89609c6000609754815260200190815260200160002060020154101561049c576040517f08c379a000000000000000000000000000000000000000000000000000000000815260040161049390613cd0565b60405180910390fd5b8215610b0e576040516020016104b190613d21565b6040516020818303038152906040528051906020012082600001516040516020016104dc9190613d67565b6040516020818303038152906040528051906020012003610532576040517f08c379a000000000000000000000000000000000000000000000000000000000815260040161052990613dca565b60405180910390fd5b6000826020015103610579576040517f08c379a000000000000000000000000000000000000000000000000000000000815260040161057090613e5c565b60405180910390fd5b60008260400151036105c0576040517f08c379a00000000000000000000000000000000000000000000000000000000081526004016105b790613eee565b60405180910390fd5b6040516020016105cf90613d21565b6040516020818303038152906040528051906020012082606001516040516020016105fa9190613d67565b6040516020818303038152906040528051906020012003610650576040517f08c379a000000000000000000000000000000000000000000000000000000000815260040161064790613f5a565b60405180910390fd5b6000604051806101800160405280600160985461066d9190613fa9565b815260200161067a612cd2565b73ffffffffffffffffffffffffffffffffffffffff1681526020018b73ffffffffffffffffffffffffffffffffffffffff1681526020018c81526020018a8a8080601f016020809104026020016040519081016040528093929190818152602001838380828437600081840152601f19601f82011690508083019250505050505050815260200188888080601f016020809104026020016040519081016040528093929190818152602001838380828437600081840152601f19601f820116905080830192505050505050508152602001868152602001851515815260200184815260200160011515815260200142815260200160011515815250905080609b6000610784612cd2565b73ffffffffffffffffffffffffffffffffffffffff1673ffffffffffffffffffffffffffffffffffffffff1681526020019081526020016000206000820151816000015560208201518160010160006101000a81548173ffffffffffffffffffffffffffffffffffffffff021916908373ffffffffffffffffffffffffffffffffffffffff16021790555060408201518160020160006101000a81548173ffffffffffffffffffffffffffffffffffffffff021916908373ffffffffffffffffffffffffffffffffffffffff16021790555060608201518160030155608082015181600401908161087591906141df565b5060a082015181600501908161088b91906141df565b5060c0820151816006015560e08201518160070160006101000a81548160ff0219169083151502179055506101008201518160080160008201518160000190816108d591906141df565b50602082015181600101556040820151816002015560608201518160030190816108ff91906141df565b50505061012082015181600c0160006101000a81548160ff02191690831515021790555061014082015181600d015561016082015181600e0160006101000a81548160ff02191690831515021790555090505080609d600060016098546109669190613fa9565b81526020019081526020016000206000820151816000015560208201518160010160006101000a81548173ffffffffffffffffffffffffffffffffffffffff021916908373ffffffffffffffffffffffffffffffffffffffff16021790555060408201518160020160006101000a81548173ffffffffffffffffffffffffffffffffffffffff021916908373ffffffffffffffffffffffffffffffffffffffff160217905550606082015181600301556080820151816004019081610a2b91906141df565b5060a0820151816005019081610a4191906141df565b5060c0820151816006015560e08201518160070160006101000a81548160ff021916908315150217905550610100820151816008016000820151816000019081610a8b91906141df565b5060208201518160010155604082015181600201556060820151816003019081610ab591906141df565b50505061012082015181600c0160006101000a81548160ff02191690831515021790555061014082015181600d015561016082015181600e0160006101000a81548160ff02191690831515021790555090505050611008565b60006040518061018001604052806001609854610b2b9190613fa9565b8152602001610b38612cd2565b73ffffffffffffffffffffffffffffffffffffffff1681526020018b73ffffffffffffffffffffffffffffffffffffffff1681526020018c81526020018a8a8080601f016020809104026020016040519081016040528093929190818152602001838380828437600081840152601f19601f82011690508083019250505050505050815260200188888080601f016020809104026020016040519081016040528093929190818152602001838380828437600081840152601f19601f82011690508083019250505050505050815260200186815260200185151581526020016040518060800160405280604051806020016040528060008152508152602001600081526020016000815260200160405180602001604052806000815250815250815260200160011515815260200142815260200160011515815250905080609b6000610c82612cd2565b73ffffffffffffffffffffffffffffffffffffffff1673ffffffffffffffffffffffffffffffffffffffff1681526020019081526020016000206000820151816000015560208201518160010160006101000a81548173ffffffffffffffffffffffffffffffffffffffff021916908373ffffffffffffffffffffffffffffffffffffffff16021790555060408201518160020160006101000a81548173ffffffffffffffffffffffffffffffffffffffff021916908373ffffffffffffffffffffffffffffffffffffffff160217905550606082015181600301556080820151816004019081610d7391906141df565b5060a0820151816005019081610d8991906141df565b5060c0820151816006015560e08201518160070160006101000a81548160ff021916908315150217905550610100820151816008016000820151816000019081610dd391906141df565b5060208201518160010155604082015181600201556060820151816003019081610dfd91906141df565b50505061012082015181600c0160006101000a81548160ff02191690831515021790555061014082015181600d015561016082015181600e0160006101000a81548160ff02191690831515021790555090505080609d60006001609854610e649190613fa9565b81526020019081526020016000206000820151816000015560208201518160010160006101000a81548173ffffffffffffffffffffffffffffffffffffffff021916908373ffffffffffffffffffffffffffffffffffffffff16021790555060408201518160020160006101000a81548173ffffffffffffffffffffffffffffffffffffffff021916908373ffffffffffffffffffffffffffffffffffffffff160217905550606082015181600301556080820151816004019081610f2991906141df565b5060a0820151816005019081610f3f91906141df565b5060c0820151816006015560e08201518160070160006101000a81548160ff021916908315150217905550610100820151816008016000820151816000019081610f8991906141df565b5060208201518160010155604082015181600201556060820151816003019081610fb391906141df565b50505061012082015181600c0160006101000a81548160ff02191690831515021790555061014082015181600d015561016082015181600e0160006101000a81548160ff021916908315150217905550905050505b6098600081548092919061101b906142b1565b91905055506000609a60009054906101000a900473ffffffffffffffffffffffffffffffffffffffff1673ffffffffffffffffffffffffffffffffffffffff1663dd62ed3e611068612cd2565b306040518363ffffffff1660e01b81526004016110869291906142f9565b602060405180830381865afa1580156110a3573d6000803e3d6000fd5b505050506040513d601f19601f820116820180604052508101906110c79190614337565b905080609c60006097548152602001908152602001600020600201541115611124576040517f08c379a000000000000000000000000000000000000000000000000000000000815260040161111b906143d6565b60405180910390fd5b6000609a60009054906101000a900473ffffffffffffffffffffffffffffffffffffffff1673ffffffffffffffffffffffffffffffffffffffff16611167612cd2565b308e60405160240161117b939291906143f6565b6040516020818303038152906040527f23b872dd000000000000000000000000000000000000000000000000000000007bffffffffffffffffffffffffffffffffffffffffffffffffffffffff19166020820180517bffffffffffffffffffffffffffffffffffffffffffffffffffffffff83818316178352505050506040516112059190614474565b6000604051808303816000865af19150503d8060008114611242576040519150601f19603f3d011682016040523d82523d6000602084013e611247565b606091505b505090508061128b576040517f08c379a0000000000000000000000000000000000000000000000000000000008152600401611282906144d7565b60405180910390fd5b609a60009054906101000a900473ffffffffffffffffffffffffffffffffffffffff1673ffffffffffffffffffffffffffffffffffffffff166097546112cf612cd2565b73ffffffffffffffffffffffffffffffffffffffff167f58330306ef0ee8577ce745afd31a9f2d72192bbb927765d6bd432b3fe75663f28f426040516113169291906144f7565b60405180910390a46001925050509998505050505050505050565b611339612cda565b609960149054906101000a900460ff1615611389576040517f08c379a00000000000000000000000000000000000000000000000000000000081526004016113809061456c565b60405180910390fd5b6001609960146101000a81548160ff021916908315150217905550807f927e6cd2dce24f32508868820cdc35f09d9de0f4b44e945114110125196fba9f426040516113d49190612fd4565b60405180910390a250565b60008060019054906101000a900460ff161590508080156114105750600160008054906101000a900460ff1660ff16105b8061143d575061141f30612d58565b15801561143c5750600160008054906101000a900460ff1660ff16145b5b61147c576040517f08c379a0000000000000000000000000000000000000000000000000000000008152600401611473906145fe565b60405180910390fd5b60016000806101000a81548160ff021916908360ff16021790555080156114b9576001600060016101000a81548160ff0219169083151502179055505b600073ffffffffffffffffffffffffffffffffffffffff168573ffffffffffffffffffffffffffffffffffffffff1603611528576040517f08c379a000000000000000000000000000000000000000000000000000000000815260040161151f9061466a565b60405180910390fd5b611530612d7b565b611538612ddc565b84609a60006101000a81548173ffffffffffffffffffffffffffffffffffffffff021916908373ffffffffffffffffffffffffffffffffffffffff1602179055506097600081548092919061158c906142b1565b9190505550604051806060016040528085815260200184815260200183815250609c60006097548152602001908152602001600020600082015181600001556020820151816001015560408201518160020155905050801561163b5760008060016101000a81548160ff0219169083151502179055507f7f26b83ff96e1f2b6a682f133852f6798a09c465da95921460cefb3847402498600160405161163291906146d2565b60405180910390a15b5050505050565b6000609960149054906101000a900460ff1615611694576040517f08c379a000000000000000000000000000000000000000000000000000000000815260040161168b90614739565b60405180910390fd5b60011515609b60006116a4612cd2565b73ffffffffffffffffffffffffffffffffffffffff1673ffffffffffffffffffffffffffffffffffffffff168152602001908152602001600020600e0160009054906101000a900460ff16151514611731576040517f08c379a0000000000000000000000000000000000000000000000000000000008152600401611728906147a5565b60405180910390fd5b609c6000609754815260200190815260200160002060000154421061178b576040517f08c379a000000000000000000000000000000000000000000000000000000000815260040161178290614811565b60405180910390fd5b6203f480609c60006097548152602001908152602001600020600001546117b29190614831565b42116117f3576040517f08c379a00000000000000000000000000000000000000000000000000000000081526004016117ea906148b1565b60405180910390fd5b60001515609b6000611803612cd2565b73ffffffffffffffffffffffffffffffffffffffff1673ffffffffffffffffffffffffffffffffffffffff168152602001908152602001600020600e0160009054906101000a90505050609b6000611859612cd2565b73ffffffffffffffffffffffffffffffffffffffff1673ffffffffffffffffffffffffffffffffffffffff16815260200190815260200160002060020160009054906101000a900473ffffffffffffffffffffffffffffffffffffffff1673ffffffffffffffffffffffffffffffffffffffff166370a08231306040518263ffffffff1660e01b81526004016118ef9190613701565b602060405180830381865afa15801561190c573d6000803e3d6000fd5b505050506040513d601f19601f820116820180604052508101906119309190614337565b609b600061193c612cd2565b73ffffffffffffffffffffffffffffffffffffffff1673ffffffffffffffffffffffffffffffffffffffff1681526020019081526020016000206003015411156119bb576040517f08c379a00000000000000000000000000000000000000000000000000000000081526004016119b290614943565b60405180910390fd5b6000609b60006119c9612cd2565b73ffffffffffffffffffffffffffffffffffffffff1673ffffffffffffffffffffffffffffffffffffffff16815260200190815260200160002060020160009054906101000a900473ffffffffffffffffffffffffffffffffffffffff1673ffffffffffffffffffffffffffffffffffffffff1663a9059cbb611a4a612cd2565b609b6000611a56612cd2565b73ffffffffffffffffffffffffffffffffffffffff1673ffffffffffffffffffffffffffffffffffffffff168152602001908152602001600020600301546040518363ffffffff1660e01b8152600401611ab1929190614963565b6020604051808303816000875af1158015611ad0573d6000803e3d6000fd5b505050506040513d601f19601f82011682018060405250810190611af491906149a1565b905080611b36576040517f08c379a0000000000000000000000000000000000000000000000000000000008152600401611b2d90614a1a565b60405180910390fd5b609b6000611b42612cd2565b73ffffffffffffffffffffffffffffffffffffffff1673ffffffffffffffffffffffffffffffffffffffff16815260200190815260200160002060000154611b88612cd2565b73ffffffffffffffffffffffffffffffffffffffff167f91a5edc59670af2abda402d2ca6c9ec4f027598df96f417be143be4425a30221609b6000611bcb612cd2565b73ffffffffffffffffffffffffffffffffffffffff1673ffffffffffffffffffffffffffffffffffffffff1681526020019081526020016000206003015442604051611c189291906144f7565b60405180910390a3600191505090565b611c30612cda565b611c3a6000612e34565b565b609d6020528060005260406000206000915090508060000154908060010160009054906101000a900473ffffffffffffffffffffffffffffffffffffffff16908060020160009054906101000a900473ffffffffffffffffffffffffffffffffffffffff1690806003015490806004018054611cb79061400c565b80601f0160208091040260200160405190810160405280929190818152602001828054611ce39061400c565b8015611d305780601f10611d0557610100808354040283529160200191611d30565b820191906000526020600020905b815481529060010190602001808311611d1357829003601f168201915b505050505090806005018054611d459061400c565b80601f0160208091040260200160405190810160405280929190818152602001828054611d719061400c565b8015611dbe5780601f10611d9357610100808354040283529160200191611dbe565b820191906000526020600020905b815481529060010190602001808311611da157829003601f168201915b5050505050908060060154908060070160009054906101000a900460ff169080600801604051806080016040529081600082018054611dfc9061400c565b80601f0160208091040260200160405190810160405280929190818152602001828054611e289061400c565b8015611e755780601f10611e4a57610100808354040283529160200191611e75565b820191906000526020600020905b815481529060010190602001808311611e5857829003601f168201915b505050505081526020016001820154815260200160028201548152602001600382018054611ea29061400c565b80601f0160208091040260200160405190810160405280929190818152602001828054611ece9061400c565b8015611f1b5780601f10611ef057610100808354040283529160200191611f1b565b820191906000526020600020905b815481529060010190602001808311611efe57829003601f168201915b5050505050815250509080600c0160009054906101000a900460ff169080600d01549080600e0160009054906101000a900460ff1690508c565b6000606560009054906101000a900473ffffffffffffffffffffffffffffffffffffffff16905090565b609b6020528060005260406000206000915090508060000154908060010160009054906101000a900473ffffffffffffffffffffffffffffffffffffffff16908060020160009054906101000a900473ffffffffffffffffffffffffffffffffffffffff1690806003015490806004018054611ffa9061400c565b80601f01602080910402602001604051908101604052809291908181526020018280546120269061400c565b80156120735780601f1061204857610100808354040283529160200191612073565b820191906000526020600020905b81548152906001019060200180831161205657829003601f168201915b5050505050908060050180546120889061400c565b80601f01602080910402602001604051908101604052809291908181526020018280546120b49061400c565b80156121015780601f106120d657610100808354040283529160200191612101565b820191906000526020600020905b8154815290600101906020018083116120e457829003601f168201915b5050505050908060060154908060070160009054906101000a900460ff16908060080160405180608001604052908160008201805461213f9061400c565b80601f016020809104026020016040519081016040528092919081815260200182805461216b9061400c565b80156121b85780601f1061218d576101008083540402835291602001916121b8565b820191906000526020600020905b81548152906001019060200180831161219b57829003601f168201915b5050505050815260200160018201548152602001600282015481526020016003820180546121e59061400c565b80601f01602080910402602001604051908101604052809291908181526020018280546122119061400c565b801561225e5780601f106122335761010080835404028352916020019161225e565b820191906000526020600020905b81548152906001019060200180831161224157829003601f168201915b5050505050815250509080600c0160009054906101000a900460ff169080600d01549080600e0160009054906101000a900460ff1690508c565b6000609b60006122a6612cd2565b73ffffffffffffffffffffffffffffffffffffffff1673ffffffffffffffffffffffffffffffffffffffff168152602001908152602001600020600c0160009054906101000a900460ff16905090565b6122fe612efa565b609b600061230a612cd2565b73ffffffffffffffffffffffffffffffffffffffff1673ffffffffffffffffffffffffffffffffffffffff16815260200190815260200160002060405180610180016040529081600082015481526020016001820160009054906101000a900473ffffffffffffffffffffffffffffffffffffffff1673ffffffffffffffffffffffffffffffffffffffff1673ffffffffffffffffffffffffffffffffffffffff1681526020016002820160009054906101000a900473ffffffffffffffffffffffffffffffffffffffff1673ffffffffffffffffffffffffffffffffffffffff1673ffffffffffffffffffffffffffffffffffffffff168152602001600382015481526020016004820180546124209061400c565b80601f016020809104026020016040519081016040528092919081815260200182805461244c9061400c565b80156124995780601f1061246e57610100808354040283529160200191612499565b820191906000526020600020905b81548152906001019060200180831161247c57829003601f168201915b505050505081526020016005820180546124b29061400c565b80601f01602080910402602001604051908101604052809291908181526020018280546124de9061400c565b801561252b5780601f106125005761010080835404028352916020019161252b565b820191906000526020600020905b81548152906001019060200180831161250e57829003601f168201915b50505050508152602001600682015481526020016007820160009054906101000a900460ff16151515158152602001600882016040518060800160405290816000820180546125799061400c565b80601f01602080910402602001604051908101604052809291908181526020018280546125a59061400c565b80156125f25780601f106125c7576101008083540402835291602001916125f2565b820191906000526020600020905b8154815290600101906020018083116125d557829003601f168201915b50505050508152602001600182015481526020016002820154815260200160038201805461261f9061400c565b80601f016020809104026020016040519081016040528092919081815260200182805461264b9061400c565b80156126985780601f1061266d57610100808354040283529160200191612698565b820191906000526020600020905b81548152906001019060200180831161267b57829003601f168201915b5050505050815250508152602001600c820160009054906101000a900460ff16151515158152602001600d8201548152602001600e820160009054906101000a900460ff161515151581525050905090565b6126f2612cda565b609960149054906101000a900460ff16612741576040517f08c379a000000000000000000000000000000000000000000000000000000000815260040161273890614a86565b60405180910390fd5b6000609960146101000a81548160ff021916908315150217905550807ff608654a6d8e1785594639dd55babb61d7ae157382015f904a24224e50333b1d4260405161278c9190612fd4565b60405180910390a250565b60975481565b609c6020528060005260406000206000915090508060000154908060010154908060020154905083565b6060600060985467ffffffffffffffff8111156127e7576127e6613140565b5b60405190808252806020026020018201604052801561282057816020015b61280d612efa565b8152602001906001900390816128055790505b50905060005b609854811015612c2157609d60006001836128419190613fa9565b815260200190815260200160002060405180610180016040529081600082015481526020016001820160009054906101000a900473ffffffffffffffffffffffffffffffffffffffff1673ffffffffffffffffffffffffffffffffffffffff1673ffffffffffffffffffffffffffffffffffffffff1681526020016002820160009054906101000a900473ffffffffffffffffffffffffffffffffffffffff1673ffffffffffffffffffffffffffffffffffffffff1673ffffffffffffffffffffffffffffffffffffffff1681526020016003820154815260200160048201805461292b9061400c565b80601f01602080910402602001604051908101604052809291908181526020018280546129579061400c565b80156129a45780601f10612979576101008083540402835291602001916129a4565b820191906000526020600020905b81548152906001019060200180831161298757829003601f168201915b505050505081526020016005820180546129bd9061400c565b80601f01602080910402602001604051908101604052809291908181526020018280546129e99061400c565b8015612a365780601f10612a0b57610100808354040283529160200191612a36565b820191906000526020600020905b815481529060010190602001808311612a1957829003601f168201915b50505050508152602001600682015481526020016007820160009054906101000a900460ff1615151515815260200160088201604051806080016040529081600082018054612a849061400c565b80601f0160208091040260200160405190810160405280929190818152602001828054612ab09061400c565b8015612afd5780601f10612ad257610100808354040283529160200191612afd565b820191906000526020600020905b815481529060010190602001808311612ae057829003601f168201915b505050505081526020016001820154815260200160028201548152602001600382018054612b2a9061400c565b80601f0160208091040260200160405190810160405280929190818152602001828054612b569061400c565b8015612ba35780601f10612b7857610100808354040283529160200191612ba3565b820191906000526020600020905b815481529060010190602001808311612b8657829003601f168201915b5050505050815250508152602001600c820160009054906101000a900460ff16151515158152602001600d8201548152602001600e820160009054906101000a900460ff161515151581525050828281518110612c0357612c02614aa6565b5b60200260200101819052508080612c19906142b1565b915050612826565b508091505090565b612c31612cda565b600073ffffffffffffffffffffffffffffffffffffffff168173ffffffffffffffffffffffffffffffffffffffff1603612ca0576040517f08c379a0000000000000000000000000000000000000000000000000000000008152600401612c9790614b47565b60405180910390fd5b612ca981612e34565b50565b609a60009054906101000a900473ffffffffffffffffffffffffffffffffffffffff1681565b600033905090565b612ce2612cd2565b73ffffffffffffffffffffffffffffffffffffffff16612d00611f55565b73ffffffffffffffffffffffffffffffffffffffff1614612d56576040517f08c379a0000000000000000000000000000000000000000000000000000000008152600401612d4d90614bb3565b60405180910390fd5b565b6000808273ffffffffffffffffffffffffffffffffffffffff163b119050919050565b600060019054906101000a900460ff16612dca576040517f08c379a0000000000000000000000000000000000000000000000000000000008152600401612dc190614c45565b60405180910390fd5b612dda612dd5612cd2565b612e34565b565b600060019054906101000a900460ff16612e2b576040517f08c379a0000000000000000000000000000000000000000000000000000000008152600401612e2290614c45565b60405180910390fd5b60018081905550565b6000606560009054906101000a900473ffffffffffffffffffffffffffffffffffffffff16905081606560006101000a81548173ffffffffffffffffffffffffffffffffffffffff021916908373ffffffffffffffffffffffffffffffffffffffff1602179055508173ffffffffffffffffffffffffffffffffffffffff168173ffffffffffffffffffffffffffffffffffffffff167f8be0079c531659141344cd1fd0a4f28419497f9722a3daafe3b4186f6b6457e060405160405180910390a35050565b60405180610180016040528060008152602001600073ffffffffffffffffffffffffffffffffffffffff168152602001600073ffffffffffffffffffffffffffffffffffffffff16815260200160008152602001606081526020016060815260200160008152602001600015158152602001612f74612f93565b8152602001600015158152602001600081526020016000151581525090565b6040518060800160405280606081526020016000815260200160008152602001606081525090565b6000819050919050565b612fce81612fbb565b82525050565b6000602082019050612fe96000830184612fc5565b92915050565b6000604051905090565b600080fd5b600080fd5b61300c81612fbb565b811461301757600080fd5b50565b60008135905061302981613003565b92915050565b600073ffffffffffffffffffffffffffffffffffffffff82169050919050565b600061305a8261302f565b9050919050565b61306a8161304f565b811461307557600080fd5b50565b60008135905061308781613061565b92915050565b600080fd5b600080fd5b600080fd5b60008083601f8401126130b2576130b161308d565b5b8235905067ffffffffffffffff8111156130cf576130ce613092565b5b6020830191508360018202830111156130eb576130ea613097565b5b9250929050565b60008115159050919050565b613107816130f2565b811461311257600080fd5b50565b600081359050613124816130fe565b92915050565b600080fd5b6000601f19601f8301169050919050565b7f4e487b7100000000000000000000000000000000000000000000000000000000600052604160045260246000fd5b6131788261312f565b810181811067ffffffffffffffff8211171561319757613196613140565b5b80604052505050565b60006131aa612fef565b90506131b6828261316f565b919050565b600080fd5b600080fd5b600067ffffffffffffffff8211156131e0576131df613140565b5b6131e98261312f565b9050602081019050919050565b82818337600083830152505050565b6000613218613213846131c5565b6131a0565b905082815260208101848484011115613234576132336131c0565b5b61323f8482856131f6565b509392505050565b600082601f83011261325c5761325b61308d565b5b813561326c848260208601613205565b91505092915050565b60006080828403121561328b5761328a61312a565b5b61329560806131a0565b9050600082013567ffffffffffffffff8111156132b5576132b46131bb565b5b6132c184828501613247565b60008301525060206132d58482850161301a565b60208301525060406132e98482850161301a565b604083015250606082013567ffffffffffffffff81111561330d5761330c6131bb565b5b61331984828501613247565b60608301525092915050565b600080600080600080600080600060e08a8c03121561334757613346612ff9565b5b60006133558c828d0161301a565b99505060206133668c828d01613078565b98505060408a013567ffffffffffffffff81111561338757613386612ffe565b5b6133938c828d0161309c565b975097505060608a013567ffffffffffffffff8111156133b6576133b5612ffe565b5b6133c28c828d0161309c565b955095505060806133d58c828d0161301a565b93505060a06133e68c828d01613115565b92505060c08a013567ffffffffffffffff81111561340757613406612ffe565b5b6134138c828d01613275565b9150509295985092959850929598565b61342c816130f2565b82525050565b60006020820190506134476000830184613423565b92915050565b60006020828403121561346357613462612ff9565b5b60006134718482850161301a565b91505092915050565b6000806000806080858703121561349457613493612ff9565b5b60006134a287828801613078565b94505060206134b38782880161301a565b93505060406134c48782880161301a565b92505060606134d58782880161301a565b91505092959194509250565b6134ea8161304f565b82525050565b600081519050919050565b600082825260208201905092915050565b60005b8381101561352a57808201518184015260208101905061350f565b60008484015250505050565b6000613541826134f0565b61354b81856134fb565b935061355b81856020860161350c565b6135648161312f565b840191505092915050565b600082825260208201905092915050565b600061358b826134f0565b613595818561356f565b93506135a581856020860161350c565b6135ae8161312f565b840191505092915050565b6135c281612fbb565b82525050565b600060808301600083015184820360008601526135e58282613580565b91505060208301516135fa60208601826135b9565b50604083015161360d60408601826135b9565b50606083015184820360608601526136258282613580565b9150508091505092915050565b600061018082019050613648600083018f612fc5565b613655602083018e6134e1565b613662604083018d6134e1565b61366f606083018c612fc5565b8181036080830152613681818b613536565b905081810360a0830152613695818a613536565b90506136a460c0830189612fc5565b6136b160e0830188613423565b8181036101008301526136c481876135c8565b90506136d4610120830186613423565b6136e2610140830185612fc5565b6136f0610160830184613423565b9d9c50505050505050505050505050565b600060208201905061371660008301846134e1565b92915050565b60006020828403121561373257613731612ff9565b5b600061374084828501613078565b91505092915050565b6137528161304f565b82525050565b613761816130f2565b82525050565b600060808301600083015184820360008601526137848282613580565b915050602083015161379960208601826135b9565b5060408301516137ac60408601826135b9565b50606083015184820360608601526137c48282613580565b9150508091505092915050565b6000610180830160008301516137ea60008601826135b9565b5060208301516137fd6020860182613749565b5060408301516138106040860182613749565b50606083015161382360608601826135b9565b506080830151848203608086015261383b8282613580565b91505060a083015184820360a08601526138558282613580565b91505060c083015161386a60c08601826135b9565b5060e083015161387d60e0860182613758565b506101008301518482036101008601526138978282613767565b9150506101208301516138ae610120860182613758565b506101408301516138c36101408601826135b9565b506101608301516138d8610160860182613758565b508091505092915050565b600060208201905081810360008301526138fd81846137d1565b905092915050565b600060608201905061391a6000830186612fc5565b6139276020830185612fc5565b6139346040830184612fc5565b949350505050565b600081519050919050565b600082825260208201905092915050565b6000819050602082019050919050565b60006101808301600083015161398160008601826135b9565b5060208301516139946020860182613749565b5060408301516139a76040860182613749565b5060608301516139ba60608601826135b9565b50608083015184820360808601526139d28282613580565b91505060a083015184820360a08601526139ec8282613580565b91505060c0830151613a0160c08601826135b9565b5060e0830151613a1460e0860182613758565b50610100830151848203610100860152613a2e8282613767565b915050610120830151613a45610120860182613758565b50610140830151613a5a6101408601826135b9565b50610160830151613a6f610160860182613758565b508091505092915050565b6000613a868383613968565b905092915050565b6000602082019050919050565b6000613aa68261393c565b613ab08185613947565b935083602082028501613ac285613958565b8060005b85811015613afe5784840389528151613adf8582613a7a565b9450613aea83613a8e565b925060208a01995050600181019050613ac6565b50829750879550505050505092915050565b60006020820190508181036000830152613b2a8184613a9b565b905092915050565b6000819050919050565b6000613b57613b52613b4d8461302f565b613b32565b61302f565b9050919050565b6000613b6982613b3c565b9050919050565b6000613b7b82613b5e565b9050919050565b613b8b81613b70565b82525050565b6000602082019050613ba66000830184613b82565b92915050565b7f5072652d426f6f6b696e67207061757365640000000000000000000000000000600082015250565b6000613be26012836134fb565b9150613bed82613bac565b602082019050919050565b60006020820190508181036000830152613c1181613bd5565b9050919050565b7f416c72656164792070726520626f6f6b65640000000000000000000000000000600082015250565b6000613c4e6012836134fb565b9150613c5982613c18565b602082019050919050565b60006020820190508181036000830152613c7d81613c41565b9050919050565b7f6c657373207468616e206d696e696d756d20616d6f756e740000000000000000600082015250565b6000613cba6018836134fb565b9150613cc582613c84565b602082019050919050565b60006020820190508181036000830152613ce981613cad565b9050919050565b600081905092915050565b50565b6000613d0b600083613cf0565b9150613d1682613cfb565b600082019050919050565b6000613d2c82613cfe565b9150819050919050565b6000613d41826134f0565b613d4b8185613cf0565b9350613d5b81856020860161350c565b80840191505092915050565b6000613d738284613d36565b915081905092915050565b7f696e766573746f72206e616d6520697320656d70747900000000000000000000600082015250565b6000613db46016836134fb565b9150613dbf82613d7e565b602082019050919050565b60006020820190508181036000830152613de381613da7565b9050919050565b7f696e766573746f7220636f6d6d69746d656e745f696e7465726573742069732060008201527f7a65726f00000000000000000000000000000000000000000000000000000000602082015250565b6000613e466024836134fb565b9150613e5182613dea565b604082019050919050565b60006020820190508181036000830152613e7581613e39565b9050919050565b7f696e766573746f722074696d655f746f5f6465636973696f6e206973207a657260008201527f6f00000000000000000000000000000000000000000000000000000000000000602082015250565b6000613ed86021836134fb565b9150613ee382613e7c565b604082019050919050565b60006020820190508181036000830152613f0781613ecb565b9050919050565b7f696e766573746f7220776562736974655f75726c20697320656d707479000000600082015250565b6000613f44601d836134fb565b9150613f4f82613f0e565b602082019050919050565b60006020820190508181036000830152613f7381613f37565b9050919050565b7f4e487b7100000000000000000000000000000000000000000000000000000000600052601160045260246000fd5b6000613fb482612fbb565b9150613fbf83612fbb565b9250828201905080821115613fd757613fd6613f7a565b5b92915050565b7f4e487b7100000000000000000000000000000000000000000000000000000000600052602260045260246000fd5b6000600282049050600182168061402457607f821691505b60208210810361403757614036613fdd565b5b50919050565b60008190508160005260206000209050919050565b60006020601f8301049050919050565b600082821b905092915050565b60006008830261409f7fffffffffffffffffffffffffffffffffffffffffffffffffffffffffffffffff82614062565b6140a98683614062565b95508019841693508086168417925050509392505050565b60006140dc6140d76140d284612fbb565b613b32565b612fbb565b9050919050565b6000819050919050565b6140f6836140c1565b61410a614102826140e3565b84845461406f565b825550505050565b600090565b61411f614112565b61412a8184846140ed565b505050565b5b8181101561414e57614143600082614117565b600181019050614130565b5050565b601f821115614193576141648161403d565b61416d84614052565b8101602085101561417c578190505b61419061418885614052565b83018261412f565b50505b505050565b600082821c905092915050565b60006141b660001984600802614198565b1980831691505092915050565b60006141cf83836141a5565b9150826002028217905092915050565b6141e8826134f0565b67ffffffffffffffff81111561420157614200613140565b5b61420b825461400c565b614216828285614152565b600060209050601f8311600181146142495760008415614237578287015190505b61424185826141c3565b8655506142a9565b601f1984166142578661403d565b60005b8281101561427f5784890151825560018201915060208501945060208101905061425a565b8683101561429c5784890151614298601f8916826141a5565b8355505b6001600288020188555050505b505050505050565b60006142bc82612fbb565b91507fffffffffffffffffffffffffffffffffffffffffffffffffffffffffffffffff82036142ee576142ed613f7a565b5b600182019050919050565b600060408201905061430e60008301856134e1565b61431b60208301846134e1565b9392505050565b60008151905061433181613003565b92915050565b60006020828403121561434d5761434c612ff9565b5b600061435b84828501614322565b91505092915050565b7f4d616b65207375726520746f2061646420656e6f75676820616c6c6f77616e6360008201527f6500000000000000000000000000000000000000000000000000000000000000602082015250565b60006143c06021836134fb565b91506143cb82614364565b604082019050919050565b600060208201905081810360008301526143ef816143b3565b9050919050565b600060608201905061440b60008301866134e1565b61441860208301856134e1565b6144256040830184612fc5565b949350505050565b600081519050919050565b600081905092915050565b600061444e8261442d565b6144588185614438565b935061446881856020860161350c565b80840191505092915050565b60006144808284614443565b915081905092915050565b7f546f6b656e207061796d656e74206661696c6564000000000000000000000000600082015250565b60006144c16014836134fb565b91506144cc8261448b565b602082019050919050565b600060208201905081810360008301526144f0816144b4565b9050919050565b600060408201905061450c6000830185612fc5565b6145196020830184612fc5565b9392505050565b7f416c726561647920706175736564000000000000000000000000000000000000600082015250565b6000614556600e836134fb565b915061456182614520565b602082019050919050565b6000602082019050818103600083015261458581614549565b9050919050565b7f496e697469616c697a61626c653a20636f6e747261637420697320616c72656160008201527f647920696e697469616c697a6564000000000000000000000000000000000000602082015250565b60006145e8602e836134fb565b91506145f38261458c565b604082019050919050565b60006020820190508181036000830152614617816145db565b9050919050565b7f5a65726f20555344542061646472657373000000000000000000000000000000600082015250565b60006146546011836134fb565b915061465f8261461e565b602082019050919050565b6000602082019050818103600083015261468381614647565b9050919050565b6000819050919050565b600060ff82169050919050565b60006146bc6146b76146b28461468a565b613b32565b614694565b9050919050565b6146cc816146a1565b82525050565b60006020820190506146e760008301846146c3565b92915050565b7f526566756e6420426f6f6b696e67207061757365640000000000000000000000600082015250565b60006147236015836134fb565b915061472e826146ed565b602082019050919050565b6000602082019050818103600083015261475281614716565b9050919050565b7f416c726561647920726566756e64656400000000000000000000000000000000600082015250565b600061478f6010836134fb565b915061479a82614759565b602082019050919050565b600060208201905081810360008301526147be81614782565b9050919050565b7f436f6e6e6f7420726566756e642061667465722073746172742074696d650000600082015250565b60006147fb601e836134fb565b9150614806826147c5565b602082019050919050565b6000602082019050818103600083015261482a816147ee565b9050919050565b600061483c82612fbb565b915061484783612fbb565b925082820390508181111561485f5761485e613f7a565b5b92915050565b7f526566756e642074696d65206e6f742079657420737461727465640000000000600082015250565b600061489b601b836134fb565b91506148a682614865565b602082019050919050565b600060208201905081810360008301526148ca8161488e565b9050919050565b7f4e6f7420656e6f75676820746f6b656e7320696e2074686520636f6e7472616360008201527f7400000000000000000000000000000000000000000000000000000000000000602082015250565b600061492d6021836134fb565b9150614938826148d1565b604082019050919050565b6000602082019050818103600083015261495c81614920565b9050919050565b600060408201905061497860008301856134e1565b6149856020830184612fc5565b9392505050565b60008151905061499b816130fe565b92915050565b6000602082840312156149b7576149b6612ff9565b5b60006149c58482850161498c565b91505092915050565b7f546f6b656e207472616e73666572206661696c65640000000000000000000000600082015250565b6000614a046015836134fb565b9150614a0f826149ce565b602082019050919050565b60006020820190508181036000830152614a33816149f7565b9050919050565b7f4e6f742070617573656400000000000000000000000000000000000000000000600082015250565b6000614a70600a836134fb565b9150614a7b82614a3a565b602082019050919050565b60006020820190508181036000830152614a9f81614a63565b9050919050565b7f4e487b7100000000000000000000000000000000000000000000000000000000600052603260045260246000fd5b7f4f776e61626c653a206e6577206f776e657220697320746865207a65726f206160008201527f6464726573730000000000000000000000000000000000000000000000000000602082015250565b6000614b316026836134fb565b9150614b3c82614ad5565b604082019050919050565b60006020820190508181036000830152614b6081614b24565b9050919050565b7f4f776e61626c653a2063616c6c6572206973206e6f7420746865206f776e6572600082015250565b6000614b9d6020836134fb565b9150614ba882614b67565b602082019050919050565b60006020820190508181036000830152614bcc81614b90565b9050919050565b7f496e697469616c697a61626c653a20636f6e7472616374206973206e6f74206960008201527f6e697469616c697a696e67000000000000000000000000000000000000000000602082015250565b6000614c2f602b836134fb565b9150614c3a82614bd3565b604082019050919050565b60006020820190508181036000830152614c5e81614c22565b905091905056fea26469706673582212206277ece4489a0d2d76bb0b2307a8e4c3a759b66fa735e724843cb7d9dc4778f264736f6c63430008110033",
  "linkReferences": {},
  "deployedLinkReferences": {}
}