{
    "_format": "hh-sol-artifact-1",
    "contractName": "TokenPreSale",
    "sourceName": "contracts/TokenPreSale.sol",
    "abi": [
        {
            "inputs": [],
            "stateMutability": "nonpayable",
            "type": "constructor"
        },
        {
            "anonymous": false,
            "inputs": [
                {
                    "indexed": false,
                    "internalType": "uint8",
                    "name": "version",
                    "type": "uint8"
                }
            ],
            "name": "Initialized",
            "type": "event"
        },
        {
            "anonymous": false,
            "inputs": [
                {
                    "indexed": true,
                    "internalType": "address",
                    "name": "previousOwner",
                    "type": "address"
                },
                {
                    "indexed": true,
                    "internalType": "address",
                    "name": "newOwner",
                    "type": "address"
                }
            ],
            "name": "OwnershipTransferred",
            "type": "event"
        },
        {
            "anonymous": false,
            "inputs": [
                {
                    "indexed": true,
                    "internalType": "uint256",
                    "name": "_id",
                    "type": "uint256"
                },
                {
                    "indexed": false,
                    "internalType": "uint256",
                    "name": "_totalTokens",
                    "type": "uint256"
                },
                {
                    "indexed": false,
                    "internalType": "uint256",
                    "name": "_startTime",
                    "type": "uint256"
                },
                {
                    "indexed": false,
                    "internalType": "uint256",
                    "name": "_endTime",
                    "type": "uint256"
                },
                {
                    "indexed": false,
                    "internalType": "uint256",
                    "name": "enableBuyWithUsdt",
                    "type": "uint256"
                },
                {
                    "indexed": false,
                    "internalType": "uint256",
                    "name": "min_purchase_usd",
                    "type": "uint256"
                },
                {
                    "indexed": false,
                    "internalType": "uint256",
                    "name": "max_purchase_usd",
                    "type": "uint256"
                }
            ],
            "name": "PresaleCreated",
            "type": "event"
        },
        {
            "anonymous": false,
            "inputs": [
                {
                    "indexed": true,
                    "internalType": "uint256",
                    "name": "id",
                    "type": "uint256"
                },
                {
                    "indexed": false,
                    "internalType": "uint256",
                    "name": "timestamp",
                    "type": "uint256"
                }
            ],
            "name": "PresalePaused",
            "type": "event"
        },
        {
            "anonymous": false,
            "inputs": [
                {
                    "indexed": true,
                    "internalType": "address",
                    "name": "prevValue",
                    "type": "address"
                },
                {
                    "indexed": true,
                    "internalType": "address",
                    "name": "newValue",
                    "type": "address"
                },
                {
                    "indexed": false,
                    "internalType": "uint256",
                    "name": "timestamp",
                    "type": "uint256"
                }
            ],
            "name": "PresaleTokenAddressUpdated",
            "type": "event"
        },
        {
            "anonymous": false,
            "inputs": [
                {
                    "indexed": true,
                    "internalType": "uint256",
                    "name": "id",
                    "type": "uint256"
                },
                {
                    "indexed": false,
                    "internalType": "uint256",
                    "name": "timestamp",
                    "type": "uint256"
                }
            ],
            "name": "PresaleUnpaused",
            "type": "event"
        },
        {
            "anonymous": false,
            "inputs": [
                {
                    "indexed": true,
                    "internalType": "bytes32",
                    "name": "key",
                    "type": "bytes32"
                },
                {
                    "indexed": false,
                    "internalType": "uint256",
                    "name": "prevValue",
                    "type": "uint256"
                },
                {
                    "indexed": false,
                    "internalType": "uint256",
                    "name": "newValue",
                    "type": "uint256"
                },
                {
                    "indexed": false,
                    "internalType": "uint256",
                    "name": "timestamp",
                    "type": "uint256"
                }
            ],
            "name": "PresaleUpdated",
            "type": "event"
        },
        {
            "anonymous": false,
            "inputs": [
                {
                    "indexed": true,
                    "internalType": "address",
                    "name": "user",
                    "type": "address"
                },
                {
                    "indexed": true,
                    "internalType": "uint256",
                    "name": "id",
                    "type": "uint256"
                },
                {
                    "indexed": true,
                    "internalType": "address",
                    "name": "purchaseToken",
                    "type": "address"
                },
                {
                    "indexed": false,
                    "internalType": "uint256",
                    "name": "tokensBought",
                    "type": "uint256"
                },
                {
                    "indexed": false,
                    "internalType": "uint256",
                    "name": "amountPaid",
                    "type": "uint256"
                },
                {
                    "indexed": false,
                    "internalType": "uint256",
                    "name": "timestamp",
                    "type": "uint256"
                }
            ],
            "name": "TokensBought",
            "type": "event"
        },
        {
            "anonymous": false,
            "inputs": [
                {
                    "indexed": true,
                    "internalType": "address",
                    "name": "user",
                    "type": "address"
                },
                {
                    "indexed": true,
                    "internalType": "uint256",
                    "name": "id",
                    "type": "uint256"
                },
                {
                    "indexed": false,
                    "internalType": "uint256",
                    "name": "amount",
                    "type": "uint256"
                },
                {
                    "indexed": false,
                    "internalType": "uint256",
                    "name": "timestamp",
                    "type": "uint256"
                }
            ],
            "name": "TokensClaimed",
            "type": "event"
        },
        {
            "anonymous": false,
            "inputs": [
                {
                    "indexed": true,
                    "internalType": "address",
                    "name": "user",
                    "type": "address"
                },
                {
                    "indexed": true,
                    "internalType": "uint256",
                    "name": "id",
                    "type": "uint256"
                },
                {
                    "indexed": true,
                    "internalType": "address",
                    "name": "purchaseToken",
                    "type": "address"
                },
                {
                    "indexed": false,
                    "internalType": "uint256",
                    "name": "amountBooked",
                    "type": "uint256"
                },
                {
                    "indexed": false,
                    "internalType": "uint256",
                    "name": "timestamp",
                    "type": "uint256"
                }
            ],
            "name": "TokensPreBooked",
            "type": "event"
        },
        {
            "anonymous": false,
            "inputs": [
                {
                    "indexed": true,
                    "internalType": "address",
                    "name": "user",
                    "type": "address"
                },
                {
                    "indexed": true,
                    "internalType": "uint256",
                    "name": "id",
                    "type": "uint256"
                },
                {
                    "indexed": false,
                    "internalType": "uint256",
                    "name": "amount",
                    "type": "uint256"
                },
                {
                    "indexed": false,
                    "internalType": "uint256",
                    "name": "timestamp",
                    "type": "uint256"
                }
            ],
            "name": "TokensPreBookedRefunded",
            "type": "event"
        },
        {
            "inputs": [],
            "name": "USDTInterface",
            "outputs": [
                {
                    "internalType": "contract IERC20Upgradeable",
                    "name": "",
                    "type": "address"
                }
            ],
            "stateMutability": "view",
            "type": "function"
        },
        {
            "inputs": [
                {
                    "internalType": "uint256",
                    "name": "_id",
                    "type": "uint256"
                },
                {
                    "internalType": "bytes32[]",
                    "name": "proof",
                    "type": "bytes32[]"
                }
            ],
            "name": "bookingRefund",
            "outputs": [
                {
                    "internalType": "bool",
                    "name": "",
                    "type": "bool"
                }
            ],
            "stateMutability": "nonpayable",
            "type": "function"
        },
        {
            "inputs": [
                {
                    "internalType": "uint256",
                    "name": "_id",
                    "type": "uint256"
                },
                {
                    "internalType": "uint256",
                    "name": "amount",
                    "type": "uint256"
                },
                {
                    "internalType": "bytes32[]",
                    "name": "proof",
                    "type": "bytes32[]"
                }
            ],
            "name": "buyWithUSDT",
            "outputs": [
                {
                    "internalType": "bool",
                    "name": "",
                    "type": "bool"
                }
            ],
            "stateMutability": "nonpayable",
            "type": "function"
        },
        {
            "inputs": [
                {
                    "internalType": "uint256",
                    "name": "_id",
                    "type": "uint256"
                },
                {
                    "internalType": "uint256",
                    "name": "_enableToBuyWithUsdt",
                    "type": "uint256"
                }
            ],
            "name": "changeEnableBuyWithUsdt",
            "outputs": [],
            "stateMutability": "nonpayable",
            "type": "function"
        },
        {
            "inputs": [
                {
                    "internalType": "uint256",
                    "name": "_id",
                    "type": "uint256"
                },
                {
                    "internalType": "uint256",
                    "name": "_newPrice",
                    "type": "uint256"
                }
            ],
            "name": "changePrice",
            "outputs": [],
            "stateMutability": "nonpayable",
            "type": "function"
        },
        {
            "inputs": [
                {
                    "internalType": "uint256",
                    "name": "_id",
                    "type": "uint256"
                },
                {
                    "internalType": "uint256",
                    "name": "_startTime",
                    "type": "uint256"
                },
                {
                    "internalType": "uint256",
                    "name": "_endTime",
                    "type": "uint256"
                }
            ],
            "name": "changeSaleTimes",
            "outputs": [],
            "stateMutability": "nonpayable",
            "type": "function"
        },
        {
            "inputs": [
                {
                    "internalType": "uint256",
                    "name": "_id",
                    "type": "uint256"
                },
                {
                    "internalType": "address",
                    "name": "_newAddress",
                    "type": "address"
                }
            ],
            "name": "changeSaleTokenAddress",
            "outputs": [],
            "stateMutability": "nonpayable",
            "type": "function"
        },
        {
            "inputs": [
                {
                    "internalType": "uint256",
                    "name": "_startTime",
                    "type": "uint256"
                },
                {
                    "internalType": "uint256",
                    "name": "_endTime",
                    "type": "uint256"
                },
                {
                    "internalType": "uint256",
                    "name": "_price",
                    "type": "uint256"
                },
                {
                    "internalType": "uint256",
                    "name": "_tokensToSell",
                    "type": "uint256"
                },
                {
                    "internalType": "uint256",
                    "name": "_baseDecimals",
                    "type": "uint256"
                },
                {
                    "internalType": "uint256",
                    "name": "_initial_release_percent",
                    "type": "uint256"
                },
                {
                    "internalType": "uint256",
                    "name": "_linear_release_time_days",
                    "type": "uint256"
                },
                {
                    "internalType": "uint256",
                    "name": "_min_purchase_usd",
                    "type": "uint256"
                },
                {
                    "internalType": "uint256",
                    "name": "_max_purchase_usd",
                    "type": "uint256"
                },
                {
                    "internalType": "uint256",
                    "name": "_enableBuyWithUsdt",
                    "type": "uint256"
                },
                {
                    "internalType": "uint256",
                    "name": "_preBookingAmount",
                    "type": "uint256"
                }
            ],
            "name": "createPresale",
            "outputs": [
                {
                    "internalType": "uint256",
                    "name": "",
                    "type": "uint256"
                }
            ],
            "stateMutability": "nonpayable",
            "type": "function"
        },
        {
            "inputs": [],
            "name": "getLatestPrice",
            "outputs": [
                {
                    "internalType": "uint256",
                    "name": "",
                    "type": "uint256"
                }
            ],
            "stateMutability": "view",
            "type": "function"
        },
        {
            "inputs": [
                {
                    "internalType": "uint256",
                    "name": "_id",
                    "type": "uint256"
                }
            ],
            "name": "getPreBookedAddresses",
            "outputs": [
                {
                    "components": [
                        {
                            "internalType": "address",
                            "name": "user",
                            "type": "address"
                        },
                        {
                            "internalType": "bool",
                            "name": "havePreBooked",
                            "type": "bool"
                        },
                        {
                            "internalType": "uint256",
                            "name": "bookingTime",
                            "type": "uint256"
                        }
                    ],
                    "internalType": "struct TokenPreSale.UserPreBookDetails[]",
                    "name": "",
                    "type": "tuple[]"
                }
            ],
            "stateMutability": "view",
            "type": "function"
        },
        {
            "inputs": [
                {
                    "internalType": "uint256",
                    "name": "_id",
                    "type": "uint256"
                }
            ],
            "name": "getPresale",
            "outputs": [
                {
                    "components": [
                        {
                            "internalType": "address",
                            "name": "saleToken",
                            "type": "address"
                        },
                        {
                            "internalType": "uint256",
                            "name": "startTime",
                            "type": "uint256"
                        },
                        {
                            "internalType": "uint256",
                            "name": "endTime",
                            "type": "uint256"
                        },
                        {
                            "internalType": "uint256",
                            "name": "price",
                            "type": "uint256"
                        },
                        {
                            "internalType": "uint256",
                            "name": "max_tokens",
                            "type": "uint256"
                        },
                        {
                            "internalType": "uint256",
                            "name": "baseDecimals",
                            "type": "uint256"
                        },
                        {
                            "internalType": "uint256",
                            "name": "inSale",
                            "type": "uint256"
                        },
                        {
                            "internalType": "uint256",
                            "name": "initial_release_percent",
                            "type": "uint256"
                        },
                        {
                            "internalType": "uint256",
                            "name": "linear_release_time_days",
                            "type": "uint256"
                        },
                        {
                            "internalType": "uint256",
                            "name": "min_purchase_usd",
                            "type": "uint256"
                        },
                        {
                            "internalType": "uint256",
                            "name": "max_purchase_usd",
                            "type": "uint256"
                        },
                        {
                            "internalType": "uint256",
                            "name": "enableBuyWithUsdt",
                            "type": "uint256"
                        }
                    ],
                    "internalType": "struct TokenPreSale.Presale",
                    "name": "",
                    "type": "tuple"
                }
            ],
            "stateMutability": "view",
            "type": "function"
        },
        {
            "inputs": [
                {
                    "internalType": "address",
                    "name": "",
                    "type": "address"
                },
                {
                    "internalType": "uint256",
                    "name": "",
                    "type": "uint256"
                }
            ],
            "name": "haveClaimed",
            "outputs": [
                {
                    "internalType": "bool",
                    "name": "",
                    "type": "bool"
                }
            ],
            "stateMutability": "view",
            "type": "function"
        },
        {
            "inputs": [
                {
                    "internalType": "address",
                    "name": "_oracle",
                    "type": "address"
                },
                {
                    "internalType": "address",
                    "name": "_usdt",
                    "type": "address"
                },
                {
                    "internalType": "bytes32",
                    "name": "_rootHash",
                    "type": "bytes32"
                }
            ],
            "name": "initialize",
            "outputs": [],
            "stateMutability": "nonpayable",
            "type": "function"
        },
        {
            "inputs": [],
            "name": "owner",
            "outputs": [
                {
                    "internalType": "address",
                    "name": "",
                    "type": "address"
                }
            ],
            "stateMutability": "view",
            "type": "function"
        },
        {
            "inputs": [
                {
                    "internalType": "uint256",
                    "name": "_id",
                    "type": "uint256"
                }
            ],
            "name": "pausePresale",
            "outputs": [],
            "stateMutability": "nonpayable",
            "type": "function"
        },
        {
            "inputs": [
                {
                    "internalType": "uint256",
                    "name": "",
                    "type": "uint256"
                }
            ],
            "name": "paused",
            "outputs": [
                {
                    "internalType": "bool",
                    "name": "",
                    "type": "bool"
                }
            ],
            "stateMutability": "view",
            "type": "function"
        },
        {
            "inputs": [
                {
                    "internalType": "uint256",
                    "name": "_id",
                    "type": "uint256"
                }
            ],
            "name": "preBokking",
            "outputs": [
                {
                    "internalType": "bool",
                    "name": "",
                    "type": "bool"
                }
            ],
            "stateMutability": "nonpayable",
            "type": "function"
        },
        {
            "inputs": [
                {
                    "internalType": "uint256",
                    "name": "",
                    "type": "uint256"
                }
            ],
            "name": "preBook",
            "outputs": [
                {
                    "internalType": "uint256",
                    "name": "preBookingAmount",
                    "type": "uint256"
                },
                {
                    "internalType": "uint256",
                    "name": "totalPreBookAmount",
                    "type": "uint256"
                }
            ],
            "stateMutability": "view",
            "type": "function"
        },
        {
            "inputs": [
                {
                    "internalType": "uint256",
                    "name": "",
                    "type": "uint256"
                }
            ],
            "name": "presale",
            "outputs": [
                {
                    "internalType": "address",
                    "name": "saleToken",
                    "type": "address"
                },
                {
                    "internalType": "uint256",
                    "name": "startTime",
                    "type": "uint256"
                },
                {
                    "internalType": "uint256",
                    "name": "endTime",
                    "type": "uint256"
                },
                {
                    "internalType": "uint256",
                    "name": "price",
                    "type": "uint256"
                },
                {
                    "internalType": "uint256",
                    "name": "max_tokens",
                    "type": "uint256"
                },
                {
                    "internalType": "uint256",
                    "name": "baseDecimals",
                    "type": "uint256"
                },
                {
                    "internalType": "uint256",
                    "name": "inSale",
                    "type": "uint256"
                },
                {
                    "internalType": "uint256",
                    "name": "initial_release_percent",
                    "type": "uint256"
                },
                {
                    "internalType": "uint256",
                    "name": "linear_release_time_days",
                    "type": "uint256"
                },
                {
                    "internalType": "uint256",
                    "name": "min_purchase_usd",
                    "type": "uint256"
                },
                {
                    "internalType": "uint256",
                    "name": "max_purchase_usd",
                    "type": "uint256"
                },
                {
                    "internalType": "uint256",
                    "name": "enableBuyWithUsdt",
                    "type": "uint256"
                }
            ],
            "stateMutability": "view",
            "type": "function"
        },
        {
            "inputs": [],
            "name": "presaleId",
            "outputs": [
                {
                    "internalType": "uint256",
                    "name": "",
                    "type": "uint256"
                }
            ],
            "stateMutability": "view",
            "type": "function"
        },
        {
            "inputs": [],
            "name": "renounceOwnership",
            "outputs": [],
            "stateMutability": "nonpayable",
            "type": "function"
        },
        {
            "inputs": [],
            "name": "rootHash",
            "outputs": [
                {
                    "internalType": "bytes32",
                    "name": "",
                    "type": "bytes32"
                }
            ],
            "stateMutability": "view",
            "type": "function"
        },
        {
            "inputs": [
                {
                    "internalType": "uint256",
                    "name": "_id",
                    "type": "uint256"
                }
            ],
            "name": "tokensAvilableToClaim",
            "outputs": [
                {
                    "internalType": "uint256",
                    "name": "",
                    "type": "uint256"
                }
            ],
            "stateMutability": "view",
            "type": "function"
        },
        {
            "inputs": [
                {
                    "internalType": "address",
                    "name": "newOwner",
                    "type": "address"
                }
            ],
            "name": "transferOwnership",
            "outputs": [],
            "stateMutability": "nonpayable",
            "type": "function"
        },
        {
            "inputs": [
                {
                    "internalType": "uint256",
                    "name": "_id",
                    "type": "uint256"
                }
            ],
            "name": "unPausePresale",
            "outputs": [],
            "stateMutability": "nonpayable",
            "type": "function"
        },
        {
            "inputs": [
                {
                    "internalType": "address",
                    "name": "",
                    "type": "address"
                },
                {
                    "internalType": "uint256",
                    "name": "",
                    "type": "uint256"
                }
            ],
            "name": "userPreBookDetails",
            "outputs": [
                {
                    "internalType": "address",
                    "name": "user",
                    "type": "address"
                },
                {
                    "internalType": "bool",
                    "name": "havePreBooked",
                    "type": "bool"
                },
                {
                    "internalType": "uint256",
                    "name": "bookingTime",
                    "type": "uint256"
                }
            ],
            "stateMutability": "view",
            "type": "function"
        }
    ],
    "bytecode": "0x608060405234801561001057600080fd5b50615f0980620000216000396000f3fe608060405234801561001057600080fd5b506004361061018d5760003560e01c8063b3de019c116100de578063e6ab143411610097578063f4329e3011610071578063f4329e30146104c6578063f57dda3b146104f6578063f597573f14610512578063fc10145e146105305761018d565b8063e6ab14341461043d578063f1933cf814610478578063f2fde38b146104aa5761018d565b8063b3de019c1461037f578063bb2103721461039b578063c9c8de64146103cb578063d01608c1146103e7578063d93f98c514610403578063e18e84f91461041f5761018d565b80634ef2a6131161014b578063715018a611610125578063715018a6146103095780638da5cb5b146103135780638e15f473146103315780638e1da47c1461034f5761018d565b80634ef2a6131461028c5780636133f985146102bc5780636796185e146102d85761018d565b8062dde10e146101925780631d80009a146101c25780631e530844146101e0578063366c87661461021057806336b9238f146102405780634a6413f714610270575b600080fd5b6101ac60048036038101906101a79190613ab1565b610560565b6040516101b99190613af9565b60405180910390f35b6101ca610580565b6040516101d79190613b2d565b60405180910390f35b6101fa60048036038101906101f59190613bad565b610586565b6040516102079190613af9565b60405180910390f35b61022a60048036038101906102259190613ab1565b6110e5565b6040516102379190613c30565b60405180910390f35b61025a60048036038101906102559190613c4b565b6113b0565b6040516102679190613c30565b60405180910390f35b61028a60048036038101906102859190613ab1565b6116bc565b005b6102a660048036038101906102a19190613d9d565b6117df565b6040516102b39190613af9565b60405180910390f35b6102d660048036038101906102d19190613e09565b61180e565b005b6102f260048036038101906102ed9190613ab1565b611abe565b604051610300929190613e5c565b60405180910390f35b610311611ae2565b005b61031b611af6565b6040516103289190613e94565b60405180910390f35b610339611b20565b6040516103469190613c30565b60405180910390f35b61036960048036038101906103649190613ab1565b611bd4565b6040516103769190613af9565b60405180910390f35b61039960048036038101906103949190613eaf565b6122ca565b005b6103b560048036038101906103b09190613ab1565b612457565b6040516103c29190614003565b60405180910390f35b6103e560048036038101906103e0919061401f565b612549565b005b61040160048036038101906103fc9190613ab1565b61287b565b005b61041d60048036038101906104189190614072565b61299d565b005b610427612b61565b6040516104349190613c30565b60405180910390f35b61045760048036038101906104529190613ab1565b612b67565b60405161046f9c9b9a999897969594939291906140b2565b60405180910390f35b610492600480360381019061048d9190613d9d565b612be7565b6040516104a19392919061416c565b60405180910390f35b6104c460048036038101906104bf91906141a3565b612c4b565b005b6104e060048036038101906104db91906141d0565b612cce565b6040516104ed9190613af9565b60405180910390f35b610510600480360381019061050b9190613eaf565b61331b565b005b61051a61340d565b604051610527919061428f565b60405180910390f35b61054a60048036038101906105459190613ab1565b613433565b60405161055791906143aa565b60405180910390f35b609c6020528060005260406000206000915054906101000a900460ff1681565b60985481565b600082826105bb8282336040516020016105a09190614414565b604051602081830303815290604052805190602001206135c6565b6105fa576040517f08c379a00000000000000000000000000000000000000000000000000000000081526004016105f19061448c565b60405180910390fd5b8660008111801561060d57506097548111155b61064c576040517f08c379a0000000000000000000000000000000000000000000000000000000008152600401610643906144f8565b60405180910390fd5b8787609d600083815260200190815260200160002060010154421015801561068a5750609d6000838152602001908152602001600020600201544211155b6106c9576040517f08c379a00000000000000000000000000000000000000000000000000000000081526004016106c090614564565b60405180910390fd5b6000811180156106ef5750609d6000838152602001908152602001600020600601548111155b61072e576040517f08c379a0000000000000000000000000000000000000000000000000000000008152600401610725906145d0565b60405180910390fd5b609c60008b815260200190815260200160002060009054906101000a900460ff161561078f576040517f08c379a00000000000000000000000000000000000000000000000000000000081526004016107869061463c565b60405180910390fd5b6000609d60008c8152602001908152602001600020600b0154116107e8576040517f08c379a00000000000000000000000000000000000000000000000000000000081526004016107df906146a8565b60405180910390fd5b60011515609f60006107f861361f565b73ffffffffffffffffffffffffffffffffffffffff1673ffffffffffffffffffffffffffffffffffffffff16815260200190815260200160002060008c815260200190815260200160002060000160149054906101000a900460ff16151514610896576040517f08c379a000000000000000000000000000000000000000000000000000000000815260040161088d90614714565b60405180910390fd5b60a060006108a261361f565b73ffffffffffffffffffffffffffffffffffffffff1673ffffffffffffffffffffffffffffffffffffffff16815260200190815260200160002060008b815260200190815260200160002060009054906101000a900460ff161561093b576040517f08c379a000000000000000000000000000000000000000000000000000000000815260040161093290614780565b60405180910390fd5b60006109468b6110e5565b90506000609d60008d8152602001908152602001600020600301548b61096c91906147cf565b90506000609d60008e815260200190815260200160002060050154600a6109939190614944565b8c61099e91906147cf565b905064e8d4a51000826109b191906149be565b9150609e60008e815260200190815260200160002060000154826109d591906149ef565b91508b609d60008f815260200190815260200160002060060160008282546109fd91906149ef565b92505081905550600160a06000610a1261361f565b73ffffffffffffffffffffffffffffffffffffffff1673ffffffffffffffffffffffffffffffffffffffff16815260200190815260200160002060008f815260200190815260200160002060006101000a81548160ff0219169083151502179055506000609a60009054906101000a900473ffffffffffffffffffffffffffffffffffffffff1673ffffffffffffffffffffffffffffffffffffffff1663dd62ed3e610abc61361f565b306040518363ffffffff1660e01b8152600401610ada929190614a23565b602060405180830381865afa158015610af7573d6000803e3d6000fd5b505050506040513d601f19601f82011682018060405250810190610b1b9190614a61565b905080831115610b60576040517f08c379a0000000000000000000000000000000000000000000000000000000008152600401610b5790614b00565b60405180910390fd5b6000609a60009054906101000a900473ffffffffffffffffffffffffffffffffffffffff1673ffffffffffffffffffffffffffffffffffffffff16610ba361361f565b3086604051602401610bb793929190614b20565b6040516020818303038152906040527f23b872dd000000000000000000000000000000000000000000000000000000007bffffffffffffffffffffffffffffffffffffffffffffffffffffffff19166020820180517bffffffffffffffffffffffffffffffffffffffffffffffffffffffff8381831617835250505050604051610c419190614bc8565b6000604051808303816000865af19150503d8060008114610c7e576040519150601f19603f3d011682016040523d82523d6000602084013e610c83565b606091505b5050905080610cc7576040517f08c379a0000000000000000000000000000000000000000000000000000000008152600401610cbe90614c2b565b60405180910390fd5b5050609a60009054906101000a900473ffffffffffffffffffffffffffffffffffffffff1673ffffffffffffffffffffffffffffffffffffffff168d610d0b61361f565b73ffffffffffffffffffffffffffffffffffffffff167f4d8aead3491b7eba4b5c7a65fc17e493b9e63f9e433522fc5f6a85a168fc9d368f8642604051610d5493929190614c4b565b60405180910390a460008311610d9f576040517f08c379a0000000000000000000000000000000000000000000000000000000008152600401610d9690614cce565b60405180910390fd5b600073ffffffffffffffffffffffffffffffffffffffff16609d60008f815260200190815260200160002060000160009054906101000a900473ffffffffffffffffffffffffffffffffffffffff1673ffffffffffffffffffffffffffffffffffffffff1603610e44576040517f08c379a0000000000000000000000000000000000000000000000000000000008152600401610e3b90614d3a565b60405180910390fd5b609d60008e815260200190815260200160002060000160009054906101000a900473ffffffffffffffffffffffffffffffffffffffff1673ffffffffffffffffffffffffffffffffffffffff166370a08231306040518263ffffffff1660e01b8152600401610eb39190613e94565b602060405180830381865afa158015610ed0573d6000803e3d6000fd5b505050506040513d601f19601f82011682018060405250810190610ef49190614a61565b831115610f36576040517f08c379a0000000000000000000000000000000000000000000000000000000008152600401610f2d90614dcc565b60405180910390fd5b82811115610f79576040517f08c379a0000000000000000000000000000000000000000000000000000000008152600401610f7090614e5e565b60405180910390fd5b6000609d60008f815260200190815260200160002060000160009054906101000a900473ffffffffffffffffffffffffffffffffffffffff1673ffffffffffffffffffffffffffffffffffffffff1663a9059cbb610fd561361f565b846040518363ffffffff1660e01b8152600401610ff3929190614e7e565b6020604051808303816000875af1158015611012573d6000803e3d6000fd5b505050506040513d601f19601f820116820180604052508101906110369190614ed3565b905080611078576040517f08c379a000000000000000000000000000000000000000000000000000000000815260040161106f90614f4c565b60405180910390fd5b508c61108261361f565b73ffffffffffffffffffffffffffffffffffffffff167fe49649ad7d04a14b0d2a43dae89f207c0822143ff6f88a6480e88907e4e5c5488e426040516110c9929190613e5c565b60405180910390a3600198505050505050505050949350505050565b6000816000811180156110fa57506097548111155b611139576040517f08c379a0000000000000000000000000000000000000000000000000000000008152600401611130906144f8565b60405180910390fd5b6000609d60008581526020019081526020016000206004015490506000609d60008681526020019081526020016000206006015490506000609d600087815260200190815260200160002060040154609d6000888152602001908152602001600020600701546111a991906147cf565b90506000609d600088815260200190815260200160002060010154426111cf91906149ef565b90506000609d60008981526020019081526020016000206007015460646111f691906149ef565b9050600062015180609d60008b81526020019081526020016000206008015461121f91906147cf565b90506000858761122f91906149ef565b90508184111561128b57609d60008b815260200190815260200160002060050154600a61125c9190614944565b609d60008c81526020019081526020016000206006015461127d91906147cf565b9850505050505050506113aa565b6000609d60008c81526020019081526020016000206004015484866112b091906147cf565b6112ba91906147cf565b9050600083826112ca91906149be565b9050600087826112da9190614f6c565b90506113526040518060400160405280600a81526020017f6d61785f746f6b656e73000000000000000000000000000000000000000000008152508b6040518060400160405280600681526020017f696e53616c6500000000000000000000000000000000000000000000000000008152508c613627565b60008460648361136291906149be565b61136c91906149ef565b9050609d60008f815260200190815260200160002060050154600a6113919190614944565b8161139c91906147cf565b9c5050505050505050505050505b50919050565b60006113ba6136c9565b428c1180156113c857508b8b115b611407576040517f08c379a00000000000000000000000000000000000000000000000000000000081526004016113fe90614fec565b60405180910390fd5b60008a1161144a576040517f08c379a000000000000000000000000000000000000000000000000000000000815260040161144190615058565b60405180910390fd5b6000891161148d576040517f08c379a0000000000000000000000000000000000000000000000000000000008152600401611484906150c4565b60405180910390fd5b600088116114d0576040517f08c379a00000000000000000000000000000000000000000000000000000000081526004016114c790615130565b60405180910390fd5b609760008154809291906114e390615150565b9190505550604051806101800160405280600073ffffffffffffffffffffffffffffffffffffffff1681526020018d81526020018c81526020018b81526020018a81526020018981526020018a815260200188815260200187815260200186815260200185815260200184815250609d6000609754815260200190815260200160002060008201518160000160006101000a81548173ffffffffffffffffffffffffffffffffffffffff021916908373ffffffffffffffffffffffffffffffffffffffff1602179055506020820151816001015560408201518160020155606082015181600301556080820151816004015560a0820151816005015560c0820151816006015560e082015181600701556101008201518160080155610120820151816009015561014082015181600a015561016082015181600b015590505060405180604001604052808381526020016000815250609e6000609754815260200190815260200160002060008201518160000155602082015181600101559050506097547f88f44129d09958cd023ae33082d9062a2dc33a377d69e9654f666645a782433b8a8e8e878a8a6040516116a096959493929190615198565b60405180910390a260975490509b9a5050505050505050505050565b806000811180156116cf57506097548111155b61170e576040517f08c379a0000000000000000000000000000000000000000000000000000000008152600401611705906144f8565b60405180910390fd5b6117166136c9565b609c600083815260200190815260200160002060009054906101000a900460ff1615611777576040517f08c379a000000000000000000000000000000000000000000000000000000000815260040161176e90615245565b60405180910390fd5b6001609c600084815260200190815260200160002060006101000a81548160ff021916908315150217905550817f927e6cd2dce24f32508868820cdc35f09d9de0f4b44e945114110125196fba9f426040516117d39190613c30565b60405180910390a25050565b60a06020528160005260406000206020528060005260406000206000915091509054906101000a900460ff1681565b60008060019054906101000a900460ff1615905080801561183f5750600160008054906101000a900460ff1660ff16105b8061186c575061184e30613747565b15801561186b5750600160008054906101000a900460ff1660ff16145b5b6118ab576040517f08c379a00000000000000000000000000000000000000000000000000000000081526004016118a2906152d7565b60405180910390fd5b60016000806101000a81548160ff021916908360ff16021790555080156118e8576001600060016101000a81548160ff0219169083151502179055505b600073ffffffffffffffffffffffffffffffffffffffff168473ffffffffffffffffffffffffffffffffffffffff1603611957576040517f08c379a000000000000000000000000000000000000000000000000000000000815260040161194e90615343565b60405180910390fd5b600073ffffffffffffffffffffffffffffffffffffffff168373ffffffffffffffffffffffffffffffffffffffff16036119c6576040517f08c379a00000000000000000000000000000000000000000000000000000000081526004016119bd906153af565b60405180910390fd5b6119ce61376a565b6119d66137cb565b83609b60006101000a81548173ffffffffffffffffffffffffffffffffffffffff021916908373ffffffffffffffffffffffffffffffffffffffff16021790555082609a60006101000a81548173ffffffffffffffffffffffffffffffffffffffff021916908373ffffffffffffffffffffffffffffffffffffffff160217905550816098819055508015611ab85760008060016101000a81548160ff0219169083151502179055507f7f26b83ff96e1f2b6a682f133852f6798a09c465da95921460cefb38474024986001604051611aaf9190615417565b60405180910390a15b50505050565b609e6020528060005260406000206000915090508060000154908060010154905082565b611aea6136c9565b611af46000613823565b565b6000606560009054906101000a900473ffffffffffffffffffffffffffffffffffffffff16905090565b600080609b60009054906101000a900473ffffffffffffffffffffffffffffffffffffffff1673ffffffffffffffffffffffffffffffffffffffff1663feaf968c6040518163ffffffff1660e01b815260040160a060405180830381865afa158015611b90573d6000803e3d6000fd5b505050506040513d601f19601f82011682018060405250810190611bb491906154aa565b5050509150506402540be40081611bcb9190615525565b90508091505090565b600081600081118015611be957506097548111155b611c28576040517f08c379a0000000000000000000000000000000000000000000000000000000008152600401611c1f906144f8565b60405180910390fd5b609c600084815260200190815260200160002060009054906101000a900460ff1615611c89576040517f08c379a0000000000000000000000000000000000000000000000000000000008152600401611c80906155e9565b60405180910390fd5b6000609d6000858152602001908152602001600020600b015411611ce2576040517f08c379a0000000000000000000000000000000000000000000000000000000008152600401611cd99061567b565b60405180910390fd5b609f6000611cee61361f565b73ffffffffffffffffffffffffffffffffffffffff1673ffffffffffffffffffffffffffffffffffffffff168152602001908152602001600020600084815260200190815260200160002060000160149054906101000a900460ff1615611d8a576040517f08c379a0000000000000000000000000000000000000000000000000000000008152600401611d81906156e7565b60405180910390fd5b6001609f6000611d9861361f565b73ffffffffffffffffffffffffffffffffffffffff1673ffffffffffffffffffffffffffffffffffffffff168152602001908152602001600020600085815260200190815260200160002060000160146101000a81548160ff02191690831515021790555042609f6000611e0a61361f565b73ffffffffffffffffffffffffffffffffffffffff1673ffffffffffffffffffffffffffffffffffffffff16815260200190815260200160002060008581526020019081526020016000206001018190555060a160008481526020019081526020016000206040518060600160405280611e8261361f565b73ffffffffffffffffffffffffffffffffffffffff16815260200160011515815260200142815250908060018154018082558091505060019003906000526020600020906002020160009091909190915060008201518160000160006101000a81548173ffffffffffffffffffffffffffffffffffffffff021916908373ffffffffffffffffffffffffffffffffffffffff16021790555060208201518160000160146101000a81548160ff021916908315150217905550604082015181600101555050609e600084815260200190815260200160002060000154609e600085815260200190815260200160002060010154611f7e9190614f6c565b609e6000858152602001908152602001600020600101819055506000609a60009054906101000a900473ffffffffffffffffffffffffffffffffffffffff1673ffffffffffffffffffffffffffffffffffffffff1663dd62ed3e611fe061361f565b306040518363ffffffff1660e01b8152600401611ffe929190614a23565b602060405180830381865afa15801561201b573d6000803e3d6000fd5b505050506040513d601f19601f8201168201806040525081019061203f9190614a61565b905080609e600086815260200190815260200160002060000154111561209a576040517f08c379a000000000000000000000000000000000000000000000000000000000815260040161209190614b00565b60405180910390fd5b6000609a60009054906101000a900473ffffffffffffffffffffffffffffffffffffffff1673ffffffffffffffffffffffffffffffffffffffff166120dd61361f565b30609e60008981526020019081526020016000206000015460405160240161210793929190614b20565b6040516020818303038152906040527f23b872dd000000000000000000000000000000000000000000000000000000007bffffffffffffffffffffffffffffffffffffffffffffffffffffffff19166020820180517bffffffffffffffffffffffffffffffffffffffffffffffffffffffff83818316178352505050506040516121919190614bc8565b6000604051808303816000865af19150503d80600081146121ce576040519150601f19603f3d011682016040523d82523d6000602084013e6121d3565b606091505b5050905080612217576040517f08c379a000000000000000000000000000000000000000000000000000000000815260040161220e90614c2b565b60405180910390fd5b609a60009054906101000a900473ffffffffffffffffffffffffffffffffffffffff1673ffffffffffffffffffffffffffffffffffffffff168561225961361f565b73ffffffffffffffffffffffffffffffffffffffff167f58330306ef0ee8577ce745afd31a9f2d72192bbb927765d6bd432b3fe75663f2609e60008a815260200190815260200160002060000154426040516122b6929190613e5c565b60405180910390a460019350505050919050565b816000811180156122dd57506097548111155b61231c576040517f08c379a0000000000000000000000000000000000000000000000000000000008152600401612313906144f8565b60405180910390fd5b6123246136c9565b60008211612367576040517f08c379a000000000000000000000000000000000000000000000000000000000815260040161235e90615058565b60405180910390fd5b42609d600085815260200190815260200160002060010154116123bf576040517f08c379a00000000000000000000000000000000000000000000000000000000081526004016123b690615753565b60405180910390fd5b6000609d600085815260200190815260200160002060030154905082609d6000868152602001908152602001600020600301819055507f50524943450000000000000000000000000000000000000000000000000000007f1b2f8f894211ac7f12917463adb7fc11bb80dec57f46ff148b23b4521968ed7482854260405161244993929190614c4b565b60405180910390a250505050565b61245f6139c1565b609d6000838152602001908152602001600020604051806101800160405290816000820160009054906101000a900473ffffffffffffffffffffffffffffffffffffffff1673ffffffffffffffffffffffffffffffffffffffff1673ffffffffffffffffffffffffffffffffffffffff168152602001600182015481526020016002820154815260200160038201548152602001600482015481526020016005820154815260200160068201548152602001600782015481526020016008820154815260200160098201548152602001600a8201548152602001600b820154815250509050919050565b8260008111801561255c57506097548111155b61259b576040517f08c379a0000000000000000000000000000000000000000000000000000000008152600401612592906144f8565b60405180910390fd5b6125a36136c9565b60008311806125b25750600082115b6125f1576040517f08c379a00000000000000000000000000000000000000000000000000000000081526004016125e8906157bf565b60405180910390fd5b600083111561272857609d6000858152602001908152602001600020600101544210612652576040517f08c379a000000000000000000000000000000000000000000000000000000000815260040161264990615753565b60405180910390fd5b824210612694576040517f08c379a000000000000000000000000000000000000000000000000000000000815260040161268b9061582b565b60405180910390fd5b6000609d600086815260200190815260200160002060010154905083609d6000878152602001908152602001600020600101819055507f53544152540000000000000000000000000000000000000000000000000000007f1b2f8f894211ac7f12917463adb7fc11bb80dec57f46ff148b23b4521968ed7482864260405161271e93929190614c4b565b60405180910390a2505b600082111561287557609d6000858152602001908152602001600020600201544210612789576040517f08c379a000000000000000000000000000000000000000000000000000000000815260040161278090615897565b60405180910390fd5b609d60008581526020019081526020016000206001015482116127e1576040517f08c379a00000000000000000000000000000000000000000000000000000000081526004016127d890615903565b60405180910390fd5b6000609d600086815260200190815260200160002060020154905082609d6000878152602001908152602001600020600201819055507f454e4400000000000000000000000000000000000000000000000000000000007f1b2f8f894211ac7f12917463adb7fc11bb80dec57f46ff148b23b4521968ed7482854260405161286b93929190614c4b565b60405180910390a2505b50505050565b8060008111801561288e57506097548111155b6128cd576040517f08c379a00000000000000000000000000000000000000000000000000000000081526004016128c4906144f8565b60405180910390fd5b6128d56136c9565b609c600083815260200190815260200160002060009054906101000a900460ff16612935576040517f08c379a000000000000000000000000000000000000000000000000000000000815260040161292c9061596f565b60405180910390fd5b6000609c600084815260200190815260200160002060006101000a81548160ff021916908315150217905550817ff608654a6d8e1785594639dd55babb61d7ae157382015f904a24224e50333b1d426040516129919190613c30565b60405180910390a25050565b816000811180156129b057506097548111155b6129ef576040517f08c379a00000000000000000000000000000000000000000000000000000000081526004016129e6906144f8565b60405180910390fd5b6129f76136c9565b600073ffffffffffffffffffffffffffffffffffffffff168273ffffffffffffffffffffffffffffffffffffffff1603612a66576040517f08c379a0000000000000000000000000000000000000000000000000000000008152600401612a5d906159db565b60405180910390fd5b6000609d600085815260200190815260200160002060000160009054906101000a900473ffffffffffffffffffffffffffffffffffffffff16905082609d600086815260200190815260200160002060000160006101000a81548173ffffffffffffffffffffffffffffffffffffffff021916908373ffffffffffffffffffffffffffffffffffffffff1602179055508273ffffffffffffffffffffffffffffffffffffffff168173ffffffffffffffffffffffffffffffffffffffff167f08bc1d537b06e3eae23dbd7475fa799c807a3eab60257650edc088d96d923d4c42604051612b539190613c30565b60405180910390a350505050565b60975481565b609d6020528060005260406000206000915090508060000160009054906101000a900473ffffffffffffffffffffffffffffffffffffffff169080600101549080600201549080600301549080600401549080600501549080600601549080600701549080600801549080600901549080600a01549080600b015490508c565b609f602052816000526040600020602052806000526040600020600091509150508060000160009054906101000a900473ffffffffffffffffffffffffffffffffffffffff16908060000160149054906101000a900460ff16908060010154905083565b612c536136c9565b600073ffffffffffffffffffffffffffffffffffffffff168173ffffffffffffffffffffffffffffffffffffffff1603612cc2576040517f08c379a0000000000000000000000000000000000000000000000000000000008152600401612cb990615a6d565b60405180910390fd5b612ccb81613823565b50565b60008282612d03828233604051602001612ce89190614414565b604051602081830303815290604052805190602001206135c6565b612d42576040517f08c379a0000000000000000000000000000000000000000000000000000000008152600401612d3990615aff565b60405180910390fd5b85600081118015612d5557506097548111155b612d94576040517f08c379a0000000000000000000000000000000000000000000000000000000008152600401612d8b906144f8565b60405180910390fd5b609c600088815260200190815260200160002060009054906101000a900460ff1615612df5576040517f08c379a0000000000000000000000000000000000000000000000000000000008152600401612dec90615b6b565b60405180910390fd5b60011515609f6000612e0561361f565b73ffffffffffffffffffffffffffffffffffffffff1673ffffffffffffffffffffffffffffffffffffffff168152602001908152602001600020600089815260200190815260200160002060000160149054906101000a900460ff16151514612ea3576040517f08c379a0000000000000000000000000000000000000000000000000000000008152600401612e9a90615bd7565b60405180910390fd5b6301e13380609f6000612eb461361f565b73ffffffffffffffffffffffffffffffffffffffff1673ffffffffffffffffffffffffffffffffffffffff168152602001908152602001600020600089815260200190815260200160002060010154612f0d9190614f6c565b4210612f4e576040517f08c379a0000000000000000000000000000000000000000000000000000000008152600401612f4590615c43565b60405180910390fd5b609e600088815260200190815260200160002060010154609e60008981526020019081526020016000206000015410612fbc576040517f08c379a0000000000000000000000000000000000000000000000000000000008152600401612fb390615caf565b60405180910390fd5b6000609f6000612fca61361f565b73ffffffffffffffffffffffffffffffffffffffff1673ffffffffffffffffffffffffffffffffffffffff168152602001908152602001600020600089815260200190815260200160002060000160146101000a81548160ff021916908315150217905550609e600088815260200190815260200160002060000154609e60008981526020019081526020016000206001015461306791906149ef565b609e600089815260200190815260200160002060010181905550609d600088815260200190815260200160002060000160009054906101000a900473ffffffffffffffffffffffffffffffffffffffff1673ffffffffffffffffffffffffffffffffffffffff166370a08231306040518263ffffffff1660e01b81526004016130f09190613e94565b602060405180830381865afa15801561310d573d6000803e3d6000fd5b505050506040513d601f19601f820116820180604052508101906131319190614a61565b609e6000898152602001908152602001600020600001541115613189576040517f08c379a000000000000000000000000000000000000000000000000000000000815260040161318090614dcc565b60405180910390fd5b6000609d600089815260200190815260200160002060000160009054906101000a900473ffffffffffffffffffffffffffffffffffffffff1673ffffffffffffffffffffffffffffffffffffffff1663a9059cbb6131e561361f565b609e60008c8152602001908152602001600020600001546040518363ffffffff1660e01b8152600401613219929190614e7e565b6020604051808303816000875af1158015613238573d6000803e3d6000fd5b505050506040513d601f19601f8201168201806040525081019061325c9190614ed3565b90508061329e576040517f08c379a000000000000000000000000000000000000000000000000000000000815260040161329590614f4c565b60405180910390fd5b876132a761361f565b73ffffffffffffffffffffffffffffffffffffffff167f91a5edc59670af2abda402d2ca6c9ec4f027598df96f417be143be4425a30221609e60008c81526020019081526020016000206000015442604051613304929190613e5c565b60405180910390a360019450505050509392505050565b8160008111801561332e57506097548111155b61336d576040517f08c379a0000000000000000000000000000000000000000000000000000000008152600401613364906144f8565b60405180910390fd5b6133756136c9565b6000609d6000858152602001908152602001600020600b0154905082609d6000868152602001908152602001600020600b01819055507f454e41424c455f4255595f574954485f555344540000000000000000000000007f1b2f8f894211ac7f12917463adb7fc11bb80dec57f46ff148b23b4521968ed748285426040516133ff93929190614c4b565b60405180910390a250505050565b609a60009054906101000a900473ffffffffffffffffffffffffffffffffffffffff1681565b6060600060a160008481526020019081526020016000208054905067ffffffffffffffff81111561346757613466615ccf565b5b6040519080825280602002602001820160405280156134a057816020015b61348d613a38565b8152602001906001900390816134855790505b50905060005b60a16000858152602001908152602001600020805490508110156135bc5760a1600085815260200190815260200160002081815481106134e9576134e8615cfe565b5b90600052602060002090600202016040518060600160405290816000820160009054906101000a900473ffffffffffffffffffffffffffffffffffffffff1673ffffffffffffffffffffffffffffffffffffffff1673ffffffffffffffffffffffffffffffffffffffff1681526020016000820160149054906101000a900460ff161515151581526020016001820154815250508282815181106135905761358f615cfe565b5b602002602001018190525080806135a690615150565b91505080806135b490615150565b9150506134a6565b5080915050919050565b6000613616848480806020026020016040519081016040528093929190818152602001838360200280828437600081840152601f19601f82011690508083019250505050505050609854846138e9565b90509392505050565b600033905090565b6136c3848484846040516024016136419493929190615d82565b6040516020818303038152906040527fc67ea9d1000000000000000000000000000000000000000000000000000000007bffffffffffffffffffffffffffffffffffffffffffffffffffffffff19166020820180517bffffffffffffffffffffffffffffffffffffffffffffffffffffffff8381831617835250505050613900565b50505050565b6136d161361f565b73ffffffffffffffffffffffffffffffffffffffff166136ef611af6565b73ffffffffffffffffffffffffffffffffffffffff1614613745576040517f08c379a000000000000000000000000000000000000000000000000000000000815260040161373c90615e21565b60405180910390fd5b565b6000808273ffffffffffffffffffffffffffffffffffffffff163b119050919050565b600060019054906101000a900460ff166137b9576040517f08c379a00000000000000000000000000000000000000000000000000000000081526004016137b090615eb3565b60405180910390fd5b6137c96137c461361f565b613823565b565b600060019054906101000a900460ff1661381a576040517f08c379a000000000000000000000000000000000000000000000000000000000815260040161381190615eb3565b60405180910390fd5b60018081905550565b6000606560009054906101000a900473ffffffffffffffffffffffffffffffffffffffff16905081606560006101000a81548173ffffffffffffffffffffffffffffffffffffffff021916908373ffffffffffffffffffffffffffffffffffffffff1602179055508173ffffffffffffffffffffffffffffffffffffffff168173ffffffffffffffffffffffffffffffffffffffff167f8be0079c531659141344cd1fd0a4f28419497f9722a3daafe3b4186f6b6457e060405160405180910390a35050565b6000826138f68584613929565b1490509392505050565b60008151905060006a636f6e736f6c652e6c6f679050602083016000808483855afa5050505050565b60008082905060005b84518110156139745761395f8286838151811061395257613951615cfe565b5b602002602001015161397f565b9150808061396c90615150565b915050613932565b508091505092915050565b60008183106139975761399282846139aa565b6139a2565b6139a183836139aa565b5b905092915050565b600082600052816020526040600020905092915050565b604051806101800160405280600073ffffffffffffffffffffffffffffffffffffffff16815260200160008152602001600081526020016000815260200160008152602001600081526020016000815260200160008152602001600081526020016000815260200160008152602001600081525090565b6040518060600160405280600073ffffffffffffffffffffffffffffffffffffffff168152602001600015158152602001600081525090565b600080fd5b600080fd5b6000819050919050565b613a8e81613a7b565b8114613a9957600080fd5b50565b600081359050613aab81613a85565b92915050565b600060208284031215613ac757613ac6613a71565b5b6000613ad584828501613a9c565b91505092915050565b60008115159050919050565b613af381613ade565b82525050565b6000602082019050613b0e6000830184613aea565b92915050565b6000819050919050565b613b2781613b14565b82525050565b6000602082019050613b426000830184613b1e565b92915050565b600080fd5b600080fd5b600080fd5b60008083601f840112613b6d57613b6c613b48565b5b8235905067ffffffffffffffff811115613b8a57613b89613b4d565b5b602083019150836020820283011115613ba657613ba5613b52565b5b9250929050565b60008060008060608587031215613bc757613bc6613a71565b5b6000613bd587828801613a9c565b9450506020613be687828801613a9c565b935050604085013567ffffffffffffffff811115613c0757613c06613a76565b5b613c1387828801613b57565b925092505092959194509250565b613c2a81613a7b565b82525050565b6000602082019050613c456000830184613c21565b92915050565b60008060008060008060008060008060006101608c8e031215613c7157613c70613a71565b5b6000613c7f8e828f01613a9c565b9b50506020613c908e828f01613a9c565b9a50506040613ca18e828f01613a9c565b9950506060613cb28e828f01613a9c565b9850506080613cc38e828f01613a9c565b97505060a0613cd48e828f01613a9c565b96505060c0613ce58e828f01613a9c565b95505060e0613cf68e828f01613a9c565b945050610100613d088e828f01613a9c565b935050610120613d1a8e828f01613a9c565b925050610140613d2c8e828f01613a9c565b9150509295989b509295989b9093969950565b600073ffffffffffffffffffffffffffffffffffffffff82169050919050565b6000613d6a82613d3f565b9050919050565b613d7a81613d5f565b8114613d8557600080fd5b50565b600081359050613d9781613d71565b92915050565b60008060408385031215613db457613db3613a71565b5b6000613dc285828601613d88565b9250506020613dd385828601613a9c565b9150509250929050565b613de681613b14565b8114613df157600080fd5b50565b600081359050613e0381613ddd565b92915050565b600080600060608486031215613e2257613e21613a71565b5b6000613e3086828701613d88565b9350506020613e4186828701613d88565b9250506040613e5286828701613df4565b9150509250925092565b6000604082019050613e716000830185613c21565b613e7e6020830184613c21565b9392505050565b613e8e81613d5f565b82525050565b6000602082019050613ea96000830184613e85565b92915050565b60008060408385031215613ec657613ec5613a71565b5b6000613ed485828601613a9c565b9250506020613ee585828601613a9c565b9150509250929050565b613ef881613d5f565b82525050565b613f0781613a7b565b82525050565b61018082016000820151613f246000850182613eef565b506020820151613f376020850182613efe565b506040820151613f4a6040850182613efe565b506060820151613f5d6060850182613efe565b506080820151613f706080850182613efe565b5060a0820151613f8360a0850182613efe565b5060c0820151613f9660c0850182613efe565b5060e0820151613fa960e0850182613efe565b50610100820151613fbe610100850182613efe565b50610120820151613fd3610120850182613efe565b50610140820151613fe8610140850182613efe565b50610160820151613ffd610160850182613efe565b50505050565b6000610180820190506140196000830184613f0d565b92915050565b60008060006060848603121561403857614037613a71565b5b600061404686828701613a9c565b935050602061405786828701613a9c565b925050604061406886828701613a9c565b9150509250925092565b6000806040838503121561408957614088613a71565b5b600061409785828601613a9c565b92505060206140a885828601613d88565b9150509250929050565b6000610180820190506140c8600083018f613e85565b6140d5602083018e613c21565b6140e2604083018d613c21565b6140ef606083018c613c21565b6140fc608083018b613c21565b61410960a083018a613c21565b61411660c0830189613c21565b61412360e0830188613c21565b614131610100830187613c21565b61413f610120830186613c21565b61414d610140830185613c21565b61415b610160830184613c21565b9d9c50505050505050505050505050565b60006060820190506141816000830186613e85565b61418e6020830185613aea565b61419b6040830184613c21565b949350505050565b6000602082840312156141b9576141b8613a71565b5b60006141c784828501613d88565b91505092915050565b6000806000604084860312156141e9576141e8613a71565b5b60006141f786828701613a9c565b935050602084013567ffffffffffffffff81111561421857614217613a76565b5b61422486828701613b57565b92509250509250925092565b6000819050919050565b600061425561425061424b84613d3f565b614230565b613d3f565b9050919050565b60006142678261423a565b9050919050565b60006142798261425c565b9050919050565b6142898161426e565b82525050565b60006020820190506142a46000830184614280565b92915050565b600081519050919050565b600082825260208201905092915050565b6000819050602082019050919050565b6142df81613ade565b82525050565b6060820160008201516142fb6000850182613eef565b50602082015161430e60208501826142d6565b5060408201516143216040850182613efe565b50505050565b600061433383836142e5565b60608301905092915050565b6000602082019050919050565b6000614357826142aa565b61436181856142b5565b935061436c836142c6565b8060005b8381101561439d5781516143848882614327565b975061438f8361433f565b925050600181019050614370565b5085935050505092915050565b600060208201905081810360008301526143c4818461434c565b905092915050565b60008160601b9050919050565b60006143e4826143cc565b9050919050565b60006143f6826143d9565b9050919050565b61440e61440982613d5f565b6143eb565b82525050565b600061442082846143fd565b60148201915081905092915050565b600082825260208201905092915050565b7f4e6f742057686974654c69737465642041646472657373000000000000000000600082015250565b600061447660178361442f565b915061448182614440565b602082019050919050565b600060208201905081810360008301526144a581614469565b9050919050565b7f496e76616c69642070726573616c652069640000000000000000000000000000600082015250565b60006144e260128361442f565b91506144ed826144ac565b602082019050919050565b60006020820190508181036000830152614511816144d5565b9050919050565b7f496e76616c69642074696d6520666f7220627579696e67000000000000000000600082015250565b600061454e60178361442f565b915061455982614518565b602082019050919050565b6000602082019050818103600083015261457d81614541565b9050919050565b7f496e76616c69642073616c6520616d6f756e7400000000000000000000000000600082015250565b60006145ba60138361442f565b91506145c582614584565b602082019050919050565b600060208201905081810360008301526145e9816145ad565b9050919050565b7f50726573616c6520706175736564000000000000000000000000000000000000600082015250565b6000614626600e8361442f565b9150614631826145f0565b602082019050919050565b6000602082019050818103600083015261465581614619565b9050919050565b7f4e6f7420616c6c6f77656420746f206275792077697468205553445400000000600082015250565b6000614692601c8361442f565b915061469d8261465c565b602082019050919050565b600060208201905081810360008301526146c181614685565b9050919050565b7f596f752068617665204e6f742070726520626f6f6b6564000000000000000000600082015250565b60006146fe60178361442f565b9150614709826146c8565b602082019050919050565b6000602082019050818103600083015261472d816146f1565b9050919050565b7f416c726561647920636c61696d65640000000000000000000000000000000000600082015250565b600061476a600f8361442f565b915061477582614734565b602082019050919050565b600060208201905081810360008301526147998161475d565b9050919050565b7f4e487b7100000000000000000000000000000000000000000000000000000000600052601160045260246000fd5b60006147da82613a7b565b91506147e583613a7b565b92508282026147f381613a7b565b9150828204841483151761480a576148096147a0565b5b5092915050565b60008160011c9050919050565b6000808291508390505b600185111561486857808604811115614844576148436147a0565b5b60018516156148535780820291505b808102905061486185614811565b9450614828565b94509492505050565b600082614881576001905061493d565b8161488f576000905061493d565b81600181146148a557600281146148af576148de565b600191505061493d565b60ff8411156148c1576148c06147a0565b5b8360020a9150848211156148d8576148d76147a0565b5b5061493d565b5060208310610133831016604e8410600b84101617156149135782820a90508381111561490e5761490d6147a0565b5b61493d565b614920848484600161481e565b92509050818404811115614937576149366147a0565b5b81810290505b9392505050565b600061494f82613a7b565b915061495a83613a7b565b92506149877fffffffffffffffffffffffffffffffffffffffffffffffffffffffffffffffff8484614871565b905092915050565b7f4e487b7100000000000000000000000000000000000000000000000000000000600052601260045260246000fd5b60006149c982613a7b565b91506149d483613a7b565b9250826149e4576149e361498f565b5b828204905092915050565b60006149fa82613a7b565b9150614a0583613a7b565b9250828203905081811115614a1d57614a1c6147a0565b5b92915050565b6000604082019050614a386000830185613e85565b614a456020830184613e85565b9392505050565b600081519050614a5b81613a85565b92915050565b600060208284031215614a7757614a76613a71565b5b6000614a8584828501614a4c565b91505092915050565b7f4d616b65207375726520746f2061646420656e6f75676820616c6c6f77616e6360008201527f6500000000000000000000000000000000000000000000000000000000000000602082015250565b6000614aea60218361442f565b9150614af582614a8e565b604082019050919050565b60006020820190508181036000830152614b1981614add565b9050919050565b6000606082019050614b356000830186613e85565b614b426020830185613e85565b614b4f6040830184613c21565b949350505050565b600081519050919050565b600081905092915050565b60005b83811015614b8b578082015181840152602081019050614b70565b60008484015250505050565b6000614ba282614b57565b614bac8185614b62565b9350614bbc818560208601614b6d565b80840191505092915050565b6000614bd48284614b97565b915081905092915050565b7f546f6b656e207061796d656e74206661696c6564000000000000000000000000600082015250565b6000614c1560148361442f565b9150614c2082614bdf565b602082019050919050565b60006020820190508181036000830152614c4481614c08565b9050919050565b6000606082019050614c606000830186613c21565b614c6d6020830185613c21565b614c7a6040830184613c21565b949350505050565b7f5a65726f20636c61696d61626c6520616d6f756e740000000000000000000000600082015250565b6000614cb860158361442f565b9150614cc382614c82565b602082019050919050565b60006020820190508181036000830152614ce781614cab565b9050919050565b7f50726573616c6520746f6b656e2061646472657373206e6f7420736574000000600082015250565b6000614d24601d8361442f565b9150614d2f82614cee565b602082019050919050565b60006020820190508181036000830152614d5381614d17565b9050919050565b7f4e6f7420656e6f75676820746f6b656e7320696e2074686520636f6e7472616360008201527f7400000000000000000000000000000000000000000000000000000000000000602082015250565b6000614db660218361442f565b9150614dc182614d5a565b604082019050919050565b60006020820190508181036000830152614de581614da9565b9050919050565b7f616d6f756e742069732067726561746572207468616e2074686520636c61696d60008201527f61626c6520616d6f756e7420617420746869732074696d650000000000000000602082015250565b6000614e4860388361442f565b9150614e5382614dec565b604082019050919050565b60006020820190508181036000830152614e7781614e3b565b9050919050565b6000604082019050614e936000830185613e85565b614ea06020830184613c21565b9392505050565b614eb081613ade565b8114614ebb57600080fd5b50565b600081519050614ecd81614ea7565b92915050565b600060208284031215614ee957614ee8613a71565b5b6000614ef784828501614ebe565b91505092915050565b7f546f6b656e207472616e73666572206661696c65640000000000000000000000600082015250565b6000614f3660158361442f565b9150614f4182614f00565b602082019050919050565b60006020820190508181036000830152614f6581614f29565b9050919050565b6000614f7782613a7b565b9150614f8283613a7b565b9250828201905080821115614f9a57614f996147a0565b5b92915050565b7f496e76616c69642074696d650000000000000000000000000000000000000000600082015250565b6000614fd6600c8361442f565b9150614fe182614fa0565b602082019050919050565b6000602082019050818103600083015261500581614fc9565b9050919050565b7f5a65726f20707269636500000000000000000000000000000000000000000000600082015250565b6000615042600a8361442f565b915061504d8261500c565b602082019050919050565b6000602082019050818103600083015261507181615035565b9050919050565b7f5a65726f20746f6b656e7320746f2073656c6c00000000000000000000000000600082015250565b60006150ae60138361442f565b91506150b982615078565b602082019050919050565b600060208201905081810360008301526150dd816150a1565b9050919050565b7f5a65726f20646563696d616c7320666f722074686520746f6b656e0000000000600082015250565b600061511a601b8361442f565b9150615125826150e4565b602082019050919050565b600060208201905081810360008301526151498161510d565b9050919050565b600061515b82613a7b565b91507fffffffffffffffffffffffffffffffffffffffffffffffffffffffffffffffff820361518d5761518c6147a0565b5b600182019050919050565b600060c0820190506151ad6000830189613c21565b6151ba6020830188613c21565b6151c76040830187613c21565b6151d46060830186613c21565b6151e16080830185613c21565b6151ee60a0830184613c21565b979650505050505050565b7f416c726561647920706175736564000000000000000000000000000000000000600082015250565b600061522f600e8361442f565b915061523a826151f9565b602082019050919050565b6000602082019050818103600083015261525e81615222565b9050919050565b7f496e697469616c697a61626c653a20636f6e747261637420697320616c72656160008201527f647920696e697469616c697a6564000000000000000000000000000000000000602082015250565b60006152c1602e8361442f565b91506152cc82615265565b604082019050919050565b600060208201905081810360008301526152f0816152b4565b9050919050565b7f5a65726f2061676772656761746f722061646472657373000000000000000000600082015250565b600061532d60178361442f565b9150615338826152f7565b602082019050919050565b6000602082019050818103600083015261535c81615320565b9050919050565b7f5a65726f20555344542061646472657373000000000000000000000000000000600082015250565b600061539960118361442f565b91506153a482615363565b602082019050919050565b600060208201905081810360008301526153c88161538c565b9050919050565b6000819050919050565b600060ff82169050919050565b60006154016153fc6153f7846153cf565b614230565b6153d9565b9050919050565b615411816153e6565b82525050565b600060208201905061542c6000830184615408565b92915050565b600069ffffffffffffffffffff82169050919050565b61545181615432565b811461545c57600080fd5b50565b60008151905061546e81615448565b92915050565b6000819050919050565b61548781615474565b811461549257600080fd5b50565b6000815190506154a48161547e565b92915050565b600080600080600060a086880312156154c6576154c5613a71565b5b60006154d48882890161545f565b95505060206154e588828901615495565b94505060406154f688828901614a4c565b935050606061550788828901614a4c565b92505060806155188882890161545f565b9150509295509295909350565b600061553082615474565b915061553b83615474565b925082820261554981615474565b91507f80000000000000000000000000000000000000000000000000000000000000008414600084121615615581576155806147a0565b5b8282058414831517615596576155956147a0565b5b5092915050565b7f5072652d426f6f6b696e67207061757365640000000000000000000000000000600082015250565b60006155d360128361442f565b91506155de8261559d565b602082019050919050565b60006020820190508181036000830152615602816155c6565b9050919050565b7f4e6f7420616c6c6f77656420746f2070726520626f6f6b20776974682077697460008201527f6820555344540000000000000000000000000000000000000000000000000000602082015250565b600061566560268361442f565b915061567082615609565b604082019050919050565b6000602082019050818103600083015261569481615658565b9050919050565b7f416c72656164792070726520626f6f6b65640000000000000000000000000000600082015250565b60006156d160128361442f565b91506156dc8261569b565b602082019050919050565b60006020820190508181036000830152615700816156c4565b9050919050565b7f53616c6520616c72656164792073746172746564000000000000000000000000600082015250565b600061573d60148361442f565b915061574882615707565b602082019050919050565b6000602082019050818103600083015261576c81615730565b9050919050565b7f496e76616c696420706172616d65746572730000000000000000000000000000600082015250565b60006157a960128361442f565b91506157b482615773565b602082019050919050565b600060208201905081810360008301526157d88161579c565b9050919050565b7f53616c652074696d6520696e2070617374000000000000000000000000000000600082015250565b600061581560118361442f565b9150615820826157df565b602082019050919050565b6000602082019050818103600083015261584481615808565b9050919050565b7f53616c6520616c726561647920656e6465640000000000000000000000000000600082015250565b600061588160128361442f565b915061588c8261584b565b602082019050919050565b600060208201905081810360008301526158b081615874565b9050919050565b7f496e76616c696420656e6454696d650000000000000000000000000000000000600082015250565b60006158ed600f8361442f565b91506158f8826158b7565b602082019050919050565b6000602082019050818103600083015261591c816158e0565b9050919050565b7f4e6f742070617573656400000000000000000000000000000000000000000000600082015250565b6000615959600a8361442f565b915061596482615923565b602082019050919050565b600060208201905081810360008301526159888161594c565b9050919050565b7f5a65726f20746f6b656e20616464726573730000000000000000000000000000600082015250565b60006159c560128361442f565b91506159d08261598f565b602082019050919050565b600060208201905081810360008301526159f4816159b8565b9050919050565b7f4f776e61626c653a206e6577206f776e657220697320746865207a65726f206160008201527f6464726573730000000000000000000000000000000000000000000000000000602082015250565b6000615a5760268361442f565b9150615a62826159fb565b604082019050919050565b60006020820190508181036000830152615a8681615a4a565b9050919050565b7f57686974654c697374656420416464726573732c2063616e6e6f74207265667560008201527f6e6420746f2077686974654c6973746564206164647265737300000000000000602082015250565b6000615ae960398361442f565b9150615af482615a8d565b604082019050919050565b60006020820190508181036000830152615b1881615adc565b9050919050565b7f526566756e6420426f6f6b696e67207061757365640000000000000000000000600082015250565b6000615b5560158361442f565b9150615b6082615b1f565b602082019050919050565b60006020820190508181036000830152615b8481615b48565b9050919050565b7f416c726561647920726566756e64656400000000000000000000000000000000600082015250565b6000615bc160108361442f565b9150615bcc82615b8b565b602082019050919050565b60006020820190508181036000830152615bf081615bb4565b9050919050565b7f526566756e6420626f6f6b696e672074696d6520657870697265640000000000600082015250565b6000615c2d601b8361442f565b9150615c3882615bf7565b602082019050919050565b60006020820190508181036000830152615c5c81615c20565b9050919050565b7f4e6f7420656e6f7567682020616d6f756e7420696e20636f6e74726163740000600082015250565b6000615c99601e8361442f565b9150615ca482615c63565b602082019050919050565b60006020820190508181036000830152615cc881615c8c565b9050919050565b7f4e487b7100000000000000000000000000000000000000000000000000000000600052604160045260246000fd5b7f4e487b7100000000000000000000000000000000000000000000000000000000600052603260045260246000fd5b600081519050919050565b6000601f19601f8301169050919050565b6000615d5482615d2d565b615d5e818561442f565b9350615d6e818560208601614b6d565b615d7781615d38565b840191505092915050565b60006080820190508181036000830152615d9c8187615d49565b9050615dab6020830186613c21565b8181036040830152615dbd8185615d49565b9050615dcc6060830184613c21565b95945050505050565b7f4f776e61626c653a2063616c6c6572206973206e6f7420746865206f776e6572600082015250565b6000615e0b60208361442f565b9150615e1682615dd5565b602082019050919050565b60006020820190508181036000830152615e3a81615dfe565b9050919050565b7f496e697469616c697a61626c653a20636f6e7472616374206973206e6f74206960008201527f6e697469616c697a696e67000000000000000000000000000000000000000000602082015250565b6000615e9d602b8361442f565b9150615ea882615e41565b604082019050919050565b60006020820190508181036000830152615ecc81615e90565b905091905056fea26469706673582212207669a9a8014c88bbfe9eecb75609247b339a95ba9ff225a1d23c71f55dac298a64736f6c63430008110033",
    "linkReferences": {},
    "deployedLinkReferences": {}
}